:020000040800F2
:1000000000000220BD350008350C0008430C000834
:10001000490C00084F0C0008550C000800000000B7
:100020000000000000000000000000005B0C000861
:10003000690C000800000000770C0008850C00081F
:100040000D3600080D3600080D3600080D36000884
:100050000D3600080D3600080D3600080D36000874
:100060000D3600080D3600080D3600080D36000864
:100070000D3600080D3600080D3600080D36000854
:100080000D3600080D360008950C00080D360008E6
:100090000D3600080D3600080D3600080D36000834
:1000A0000D3600080D3600080D3600080D36000824
:1000B0000D3600080D3600080D3600080D36000814
:1000C0000D3600080D3600080D3600080D36000804
:1000D0000D3600080D3600080D3600080D360008F4
:1000E0000D3600080D3600080D3600080D360008E4
:1000F0000D3600080D3600080D3600080D360008D4
:100100000D3600080D3600080D3600080D360008C3
:100110000D3600080D360008A90C0008C90C0008AF
:100120000D3600080D3600080D3600080D360008A3
:100130000D3600080D3600080D3600080D36000893
:100140000D3600080D3600080D3600080D36000883
:100150000D3600080D3600080D3600080D36000873
:100160000D3600080D3600080D3600080D36000863
:100170000D3600080D3600080D360008000000009E
:080180000D3600080D360008E1
:1001880010B5054C237833B9044B13B10448AFF3C9
:1001980000800123237010BD0C0000200000000027
:1001A8005836000808B5034B1BB103490348AFF3A1
:1001B800008008BD0000000010000020583600082C
:1001C80053B94AB9002908BF00281CBF4FF0FF31B6
:1001D8004FF0FF3000F07AB9ADF1080C6DE904CEAC
:1001E80000F006F8DDF804E0DDE9022304B070470A
:1001F8002DE9F0478C460D460446089E002B51D148
:100208008A4217466DD9B2FA82FEBEF1000F0BD0B2
:10021800CEF1200C01FA0EF520FA0CFC02FA0EF7CA
:100228004CEA050C00FA0EF44FEA174A250CBCFB01
:10023800FAF81FFA87F90AFB18CC45EA0C4508FBBF
:1002480009F3AB420AD9ED1908F1FF3280F0238196
:10025800AB4240F22081A8F102083D44ED1AA4B255
:10026800B5FBFAF00AFB105544EA054400FB09F90E
:10027800A14509D9E41900F1FF3380F00A81A145AD
:1002880040F2078102383C44A4EB090440EA0840E4
:100298000021002E61D024FA0EF40023346073602C
:1002A800BDE8F0878B4207D9002E54D0002186E89C
:1002B80021000846BDE8F087B3FA83F1002940F031
:1002C8008E80AB4202D3824200F2FA80841A65EB38
:1002D80003050120AC46002E3FD086E81010BDE88B
:1002E800F08712B90127B7FBF2F7B7FA87FEBEF11C
:1002F800000F34D1EB1B3A0C1FFA87FC0121B3FB2A
:10030800F2F8250C02FB183345EA03450CFB08F309
:10031800AB4207D9ED1908F1FF3002D2AB4200F227
:10032800D1808046ED1AA3B2B5FBF2F002FB10555E
:1003380043EA05440CFB00FCA44507D9E41900F185
:10034800FF3302D2A44500F2B8801846A4EB0C048F
:1003580040EA08409DE731463046BDE8F087CEF1D7
:10036800200405FA0EF307FA0EF720FA04F83A0CFF
:1003780025FA04F448EA0308B4FBF2F14FEA1845F9
:1003880002FB11441FFA87FC45EA044501FB0CF304
:10039800AB4200FA0EF409D9ED1901F1FF3080F0F3
:1003A8008A80AB4240F2878002393D44EB1A1FFA3B
:1003B80088F5B3FBF2F002FB103345EA034500FB76
:1003C8000CF3AB4207D9ED1900F1FF386FD2AB42FD
:1003D8006DD902383D44EB1A40EA01418FE7C1F17B
:1003E800200722FA07F88B4005FA01F448EA0303CC
:1003F80020FA07FE4FEA134CFD404EEA040EB5FB07
:10040800FCF94FEA1E440CFB19551FFA83F844EA1D
:10041800054509FB08F4AC4202FA01F200FA01FAB8
:1004280008D9ED1809F1FF3043D2AC4241D9A9F1FE
:1004380002091D442D1B1FFA8EFEB5FBFCF00CFBB8
:1004480010554EEA054400FB08F8A04507D9E41802
:1004580000F1FF3529D2A04527D902381C4440EACB
:100468000940A4EB0804A0FB02894C45C6464D464A
:1004780015D312D056B1BAEB0E0364EB050404FA97
:1004880007F7CB401F43CC40376074600021BDE8BC
:10049800F0871846F8E69046E0E6C245EAD2B8EB9F
:1004A800020E69EB03050138E4E72846D7E7404622
:1004B80091E78146BEE7014678E702383C4445E7C4
:1004C800084608E7A8F102083D442BE7704700BF3B
:1004D80080B582B000AF00F04DFC00F035F800F0B8
:1004E800FDF900F0F7F800F02DF900F061F900F0DF
:1004F800A1F800F06FFA124800F014FD64211048CA
:1005080000F0E9FD0E4800F0A9FF0346FB800C4807
:1005180000F0AEFD642000F09FFCFB8840F2F27210
:10052800934206D901224FF48051064801F0D2FCCB
:10053800E1E700224FF48051024801F0CBFCDAE7F2
:1005480064000020000C024080B594B000AF002386
:10055800BB60344A334B1B6C43F080531364314BFC
:100568001B6C03F08053BB60BB6800237B602E4A82
:100578002D4B1B6843F4804313602B4B1B6803F41B
:1005880080437B607B6801233B624FF480337B624E
:100598000223BB634FF48003FB6304233B64A8235B
:1005A8007B640223BB640423FB6407F12003184621
:1005B80001F0BCFC0346002B03D0B4211B4800F01B
:1005C8001DFA0F23FB6002233B6100237B614FF47C
:1005D800E053BB614FF48053FB6107F10C03052125
:1005E800184601F0E5FE0346002B03D0C2210F4850
:1005F80000F004FA02F096F802460D4BA3FB022322
:100608009B09184601F07DFA042001F087FA0022C0
:1006180000214FF0FF3001F04AFA00BF5037BD46C5
:1006280080BD00BF003802400070004070360008EE
:10063800D34D621080B584B000AF224B224A1A60B5
:10064800204B4FF480325A601E4B00229A601D4B9B
:1006580000221A611B4B00229A611A4B00221A626F
:10066800184B0022DA62174B184A9A62154B00227F
:10067800DA60144B0122DA61124B00221A63114B23
:1006880001225A610F4800F009FC0346002B03D0F1
:10069800E7210F4800F0B2F905233B6001237B6096
:1006A8000023BB603B461946064800F003FF03469B
:1006B800002B03D0F121064800F0A0F900BF103745
:1006C800BD4680BD64000020002001400100000FED
:1006D8007036000880B582B000AF174B174A1A6011
:1006E800154B4FF4FA525A60134B00229A60124B82
:1006F8004FF4FA72DA60104802F020F80346002B33
:1007080004D04FF481710E4800F078F920233B6043
:1007180000237B603B461946074802F098FE0346D3
:10072800002B04D040F20911054800F067F900BF1A
:100738000837BD4680BD00BFAC0000200010004057
:100748007036000880B582B000AF164B164A1A60A2
:10075800144B4FF4FA525A60124B00229A60114B14
:100768000122DA600F4801F0E9FF0346002B04D0AC
:100778004FF48D710D4800F041F920233B600023B0
:100788007B603B461946074802F061FE0346002B92
:1007980004D040F22111054800F030F900BF0837B5
:1007A800BD4680BDE80000200014004070360008F7
:1007B80080B594B000AF464B464A1A60444B4FF49C
:1007C8007A725A60424B00229A60414B4FF4FA7297
:1007D800DA603F4B00221A613D4B00225A613C48C7
:1007E80001F0ACFF0346002B04D040F237113A4821
:1007F80000F004F94FF480533B6407F140031946B5
:10080800334802F0FFF90346002B04D040F23D11B3
:10081800314800F0F3F82E4801F0F1FF0346002BB1
:1008280004D04FF4A1712C4800F0E8F80023BB6312
:100838000023FB6307F138031946254802F007FE39
:100848000346002B04D040F24911234800F0D6F8A3
:100858006023FB6100233B6200237B620023BB62B1
:100868000023FB6200233B6300237B6307F11C0327
:1008780000221946164802F0FFF80346002B04D060
:1008880040F25511144800F0B9F800233B600023EA
:100898007B600023BB600023FB6000233B614FF4B7
:1008A80000537B610023BB613B461946084802F0B0
:1008B80013FE0346002B04D040F26111064800F0F5
:1008C8009DF8034800F090F900BF5037BD4680BD41
:1008D80028000020000401407036000880B58AB066
:1008E80000AF00233B61374A364B1B6B43F0800354
:1008F8001363344B1B6B03F080033B613B6900239C
:10090800FB60304A2F4B1B6B43F0040313632D4BE2
:100918001B6B03F00403FB60FB680023BB60294AE0
:10092800284B1B6B43F001031363264B1B6B03F02F
:100938000103BB60BB6800237B60224A214B1B6B11
:1009480043F0080313631F4B1B6B03F008037B6022
:100958007B68002208211C4801F0BCFA00224FF4F1
:1009680070411A4801F0B6FA08237B610123BB6184
:100978000023FB6100233B6207F114031946124868
:1009880001F0F6F801237B610023BB610023FB61C2
:1009980007F1140319460E4801F0EAF84FF47043C2
:1009A8007B610123BB610023FB6100233B6207F1EC
:1009B80014031946054801F0DBF800BF2837BD4687
:1009C80080BD00BF0038024000080240000C024011
:1009D8000000024080B500AF064801F0DAFE054885
:1009E80001F0F2FE044801F0D4FE034801F0ECFEE9
:1009F80000BF80BDAC000020E800002080B483B0B8
:100A080000AF78603960FEE780B582B000AF124869
:100A180000F088FA6421104800F05DFB0E4800F0F1
:100A28001DFD0346FB800C4800F022FBFB8840F6C6
:100A38003302934206D901224FF48051074801F04E
:100A480049FA05E000224FF48051044801F042FAC7
:100A580000BF0837BD4680BD64000020000C02407E
:100A680080B500AF032001F017F8002200216FF0D5
:100A78000B0001F01CF8002200216FF00A0001F0C1
:100A880016F8002200216FF0090001F010F800228A
:100A980000216FF0040001F00AF8002200216FF035
:100AA800030001F004F8002200216FF0010000F0BB
:100AB800FEFF002200214FF0FF3000F0F8FF00BFDA
:100AC80080BD000080B588B000AF78607B681B6887
:100AD800144A934221D10023BB60134A124B5B6C2A
:100AE80043F480735364104B5B6C03F48073BB60F6
:100AF800BB682023FB6003233B6100237B6107F174
:100B08000C031946094801F033F80022002112208D
:100B180000F0CDFF122000F0E6FF00BF2037BD46F1
:100B280080BD00BF002001400038024000000240A4
:100B380080B586B000AF78607B681B68264A934210
:100B480016D100237B61254A244B1B6C43F010030C
:100B58001364224B1B6C03F010037B617B6900223A
:100B68000321362000F0A3FF362000F0BCFF2EE062
:100B78007B681B681A4A934216D100233B61174AC7
:100B8800164B1B6C43F020031364144B1B6C03F0CF
:100B980020033B613B6900220321372000F087FFD7
:100BA800372000F0A0FF12E07B681B680D4A9342D3
:100BB8000DD10023FB60094A084B5B6C43F002032C
:100BC8005364064B5B6C03F00203FB60FB6800BFD9
:100BD8001837BD4680BD00BF0010004000380240F5
:100BE800001400400004014080B588B000AF786070
:100BF8007B681B680B4A93420FD14023FB6002239A
:100C08003B6100237B610223BB610323FB6107F186
:100C18000C031946044800F0ABFF00BF2037BD465F
:100C280080BD00BF000401400008024080B400AF4E
:100C380000BFBD465DF8047B704780B400AFFEE797
:100C480080B400AFFEE780B400AFFEE780B400AF29
:100C5800FEE780B400AF00BFBD465DF8047B704777
:100C680080B400AF00BFBD465DF8047B704780B418
:100C780000AF00BFBD465DF8047B704780B500AF8C
:100C880000F0CAF800F066FF00BF80BD80B500AF75
:100C9800024800F0A2FA00BF80BD00BF6400002037
:100CA80080B500AF044801F0DFFD4FF40041034870
:100CB80001F029F900BF80BDAC000020000C024003
:100CC80080B500AF0D4801F0CFFD01210C4801F0BF
:100CD800E9F80346012B06D101224FF48041094867
:100CE80001F0F8F805E000224FF48041054801F0D2
:100CF800F1F8FFF789FE00BF80BD00BFE8000020C3
:100D080000000240000C024080B400AF164A164BA7
:100D1800D3F8883043F47003C2F88830134A134B71
:100D28001B6843F001031360104B00229A600F4ABE
:100D38000E4B1B6823F0847323F4803313600B4B32
:100D48000B4A5A60094A094B1B6823F48023136035
:100D5800064B0022DA60044B4FF000629A6000BF35
:100D6800BD465DF8047B704700ED00E000380240A6
:100D78001030002480B500AF0E4A0E4B1B6843F4B8
:100D8800007313600B4A0B4B1B6843F480631360BA
:100D9800084A084B1B6843F480731360032000F073
:100DA8007BFE002000F008F8FFF75AFE00231846E3
:100DB80080BD00BF003C024080B582B000AF7860C3
:100DC800124B1A68124B1B7819464FF47A73B3FB0F
:100DD800F1F3B2FBF3F3184600F093FE0346002B41
:100DE80001D001230EE07B680F2B0AD80022796816
:100DF8004FF0FF3000F05BFE064A7B68136000236B
:100E080000E0012318460837BD4680BD00000020D9
:100E1800080000200400002080B400AF064B1B78B7
:100E28001A46064B1B681344044A136000BFBD46AC
:100E38005DF8047B704700BF0800002024010020F3
:100E480080B400AF034B1B681846BD465DF8047BB1
:100E5800704700BF2401002080B584B000AF7860DF
:100E6800FFF7EEFFB8607B68FB60FB68B3F1FF3FFC
:100E780005D0094B1B781A46FB681344FB6000BF7A
:100E8800FFF7DEFF0246BB68D21AFB689A42F7D327
:100E980000BF1037BD4680BD0800002080B584B073
:100EA80000AF78600023FB737B68002B01D101231E
:100EB80033E07B681B6C002B09D17B6800225A64E5
:100EC8007B68002283F83C207868FFF7FBFD7B688D
:100ED8001B6C03F01003002B18D17B681B6C23F4E8
:100EE800885323F0020343F002027B681A6478688F
:100EF80000F004FC7B6800225A647B681B6C23F0BA
:100F0800030343F001027B681A6401E00123FB73C9
:100F18007B68002283F83C20FB7B18461037BD46CF
:100F280080BD000080B485B000AF78600023BB604E
:100F38007B6893F83C30012B01D1022389E07B6860
:100F4800012283F83C207B681B689B6803F001033F
:100F5800012B18D07B681B687A681268926842F087
:100F680001029A603E4B1B683E4AA2FB03239A0C7F
:100F780013465B001344BB6002E0BB68013BBB60E7
:100F8800BB68002BF9D17B681B689B6803F00103E1
:100F9800002B5DD07B681B6C23F4E06323F0010316
:100FA80043F480727B681A647B681B685B6803F48F
:100FB8008063002B07D07B681B6C23F4405343F4F9
:100FC80080527B681A647B681B6C03F48053002B87
:100FD80006D07B685B6C23F006027B685A6402E0EB
:100FE8007B6800225A647B68002283F83C201E4BF1
:100FF800FB607B681B686FF022021A60FB685B6805
:1010080003F01F03002B0FD17B681B689B6803F05C
:101018004053002B1CD17B681B687A681268926861
:1010280042F080429A6013E07B681B680F4A934243
:101038000ED17B681B689B6803F04053002B07D1D7
:101048007B681B687A681268926842F080429A60EE
:10105800002318461437BD465DF8047B704700BF6F
:101068000000002083DE1B430023014000200140D4
:1010780080B483B000AF78607B6893F83C30012B74
:1010880001D1022321E07B68012283F83C207B68A0
:101098001B687A681268926822F001029A607B687D
:1010A8001B689B6803F00103002B09D17B681B6C4C
:1010B80023F4885323F0010343F001027B681A6488
:1010C8007B68002283F83C20002318460C37BD4675
:1010D8005DF8047B704780B584B000AF78603960F4
:1010E8000023FB607B681B689B6803F48063002B0C
:1010F80012D07B681B689B6803F48073002B0BD0AD
:101108007B681B6C43F020027B681A647B680022B2
:1011180083F83C2001235CE0FFF792FEF8601AE0B8
:101128003B68B3F1FF3F16D03B68002B07D0FFF7B1
:1011380087FE0246FB68D21A3B689A420BD97B6845
:101148001B6C43F004027B681A647B68002283F8F6
:101158003C2003233DE07B681B681B6803F0020307
:10116800022BDDD17B681B686FF012021A607B6866
:101178001B6C43F400727B681A647B681B689B686D
:1011880003F04053002B23D17B689B69002B1FD1B0
:101198007B681B68DB6A03F47003002B06D07B684E
:1011A8001B689B6803F48063002B11D17B681B6C60
:1011B80023F480727B681A647B681B6C03F4805389
:1011C800002B05D17B681B6C43F001027B681A6415
:1011D800002318461037BD4680BD80B584B000AFE7
:1011E80078600023FB600023BB607B681B681B687A
:1011F80003F00203022B0CBF01230023DBB2FB60C8
:101208007B681B685B6803F02003202B0CBF01235D
:101218000023DBB2BB60FB68002B49D0BB68002B06
:1012280046D07B681B6C03F01003002B05D17B684C
:101238001B6C43F400727B681A647B681B689B68AC
:1012480003F04053002B2BD17B689B69002B27D1DF
:101258007B681B68DB6A03F47003002B06D07B688D
:101268001B689B6803F48063002B19D17B681B689B
:101278007A681268526822F020025A607B681B6CF8
:1012880023F480727B681A647B681B6C03F48053B8
:10129800002B05D17B681B6C43F001027B681A6444
:1012A800786800F0E8F87B681B686FF012021A6033
:1012B8007B681B681B6803F00403042B0CBF012325
:1012C8000023DBB2FB607B681B685B6803F080036C
:1012D800802B0CBF01230023DBB2BB60FB68002B13
:1012E80057D0BB68002B54D07B681B6C03F01003ED
:1012F800002B05D17B681B6C43F400527B681A6491
:101308007B681B689B6803F44013002B39D17B680A
:101318001B689B6B03F44013002B06D07B681B688B
:101328009B6803F48063002B2BD17B681B685B6888
:1013380003F48063002B24D17B681B689B6803F04F
:101348004053002B1DD17B689B69002B19D17B680A
:101358001B687A681268526822F080025A607B68BB
:101368001B6C23F480527B681A647B681B6C03F443
:101378008073002B05D17B681B6C43F001027B68EE
:101388001A64786800F0B4FA7B681B686FF00C0286
:101398001A607B681B681B6803F00103012B0CBFF4
:1013A80001230023DBB2FB607B681B685B6803F0EA
:1013B8004003402B0CBF01230023DBB2BB60FB685A
:1013C800002B17D0BB68002B14D07B681B681B68E8
:1013D80003F00103012B0DD17B681B6C43F48032B1
:1013E8007B681A64786800F050F87B681B686FF0B7
:1013F80001021A607B681B681B6803F02003202B1E
:101408000CBF01230023DBB2FB607B681B685B68B1
:1014180003F08063B3F1806F0CBF01230023DBB2BC
:10142800BB60FB68002B15D0BB68002B12D07B6813
:101438005B6C43F002027B685A647B681B686FF040
:1014480020021A60786800F02AF87B681B686FF041
:1014580020021A6000BF1037BD4680BD80B483B03B
:1014680000AF78607B681B68DB6C18460C37BD469C
:101478005DF8047B704780B483B000AF786000BF2C
:101488000C37BD465DF8047B704780B483B000AF6D
:10149800786000BF0C37BD465DF8047B704780B4A8
:1014A80083B000AF786000BF0C37BD465DF8047BA1
:1014B8007047000090B484B000AF786039600023B2
:1014C800BB607B6893F83C30012B01D1022307E114
:1014D8007B68012283F83C203B681B68092B26D9CE
:1014E8007B681A687B681B68D9683B681B689BB275
:1014F800184603465B0003441E3B072000FA03F32B
:10150800DB430B40D3607B681A687B681B68D9682B
:101518003B6898683B681B689BB21C4623465B0087
:1015280023441E3B00FA03F30B43D36023E07B689C
:101538001A687B681B6819693B681B689BB2184668
:1015480003465B000344072000FA03F3DB430B4028
:1015580013617B681A687B681B6819693B6898681F
:101568003B681B689BB21C4623465B00234400FA79
:1015780003F30B4313613B685B68062B24D87B6835
:1015880019687B681B68586B3B685A6813469B0050
:101598001344053B1F2202FA03F3DB4303404B636A
:1015A8007B6819687B681B68586B3B681B689BB233
:1015B8001C463B685A6813469B001344053B04FAD3
:1015C80003F303434B634CE03B685B680C2B24D864
:1015D8007B6819687B681B68186B3B685A681346F8
:1015E8009B001344233B1F2202FA03F3DB4303400F
:1015F8000B637B6819687B681B68186B3B681B6802
:101608009BB21C463B685A6813469B001344233B15
:1016180004FA03F303430B6323E07B6819687B68D0
:101628001B68D86A3B685A6813469B001344413BC1
:101638001F2202FA03F3DB430340CB627B6819687D
:101648007B681B68D86A3B681B689BB21C463B6872
:101658005A6813469B001344413B04FA03F30343BF
:10166800CB62224BFB607B681B68214A934209D1FD
:101678003B681B68122B05D1FB685B6843F480024A
:10168800FB685A607B681B68194A934223D13B6800
:101698001B68102B03D03B681B68112B1BD1FB6800
:1016A8005B6843F40002FB685A603B681B68102BB8
:1016B80011D1104B1B68104AA2FB03239A0C134646
:1016C8009B0013445B00BB6002E0BB68013BBB604E
:1016D800BB68002BF9D17B68002283F83C200023EB
:1016E80018461037BD4690BC704700BF0023014024
:1016F800002001400000002083DE1B4380B485B039
:1017080000AF7860784BFB60FB685B6823F440327D
:10171800FB685A60FB685A687B685B681A43FB6819
:101728005A607B681B687A681268526822F4807273
:101738005A607B681B687A68126851687A6812690F
:1017480012020A435A607B681B687A6812685268FA
:1017580022F040725A607B681B687A681268516888
:101768007A6892680A435A607B681B687A681268CC
:10177800926822F400629A607B681B687A68126833
:1017880091687A68D2680A439A607B689B6A574A6C
:10179800934222D07B681B687A681268926822F0AC
:1017A80070629A607B681B687A68126891687A68C8
:1017B800926A0A439A607B681B687A681268926822
:1017C80022F040529A607B681B687A6812689168B8
:1017D8007A68D26A0A439A600FE07B681B687A6865
:1017E8001268926822F070629A607B681B687A6857
:1017F8001268926822F040529A607B681B687A6887
:101808001268926822F002029A607B681B687A6804
:10181800126891687A68926952000A439A607B68F4
:101828001B6A002B1BD07B681B687A681268526899
:1018380042F400625A607B681B687A6812685268D2
:1018480022F460425A607B681B687A6812685168A3
:101858007A68526A013A52030A435A6007E07B6881
:101868001B687A681268526822F400625A607B68C2
:101878001B687A681268D26A22F47002DA627B689E
:101888001B687A681268D16A7A68D269013A1205C7
:101898000A43DA627B681B687A681268926822F4E5
:1018A80000729A607B681B687A68126891687A6827
:1018B800126B52020A439A607B681B687A68126846
:1018C800926822F480629A607B681B687A68126862
:1018D80091687A68526992020A439A6000BF143785
:1018E800BD465DF8047B7047002301400100000FEE
:1018F80080B483B000AF786000BF0C37BD465DF898
:10190800047B704780B485B000AF78607B6803F0D3
:101918000703FB600C4BDB68BB60BA684FF6FF033C
:101928001340BB60FB681A02BB68134343F0BF63F4
:1019380043F40033BB60044ABB68D36000BF14376C
:10194800BD465DF8047B704700ED00E080B400AF51
:10195800044BDB681B0A03F007031846BD465DF815
:10196800047B704700ED00E080B483B000AF03460D
:10197800FB71094997F907305B09FA7902F01F02F0
:10198800012000FA02F241F8232000BF0C37BD46BF
:101998005DF8047B704700BF00E100E080B483B0CD
:1019A80000AF03463960FB7197F90730002B0BDA5B
:1019B8000D49FB7903F00F03043B3A68D2B21201D8
:1019C800D2B20B441A7609E0084997F907303A6809
:1019D800D2B21201D2B20B4483F8002300BF0C37F5
:1019E800BD465DF8047B704700ED00E000E100E0D3
:1019F80080B489B000AFF860B9607A60FB6803F022
:101A08000703FB61FB69C3F10703042B28BF042309
:101A1800BB61FB690433062B02D9FB69033B00E079
:101A280000237B610122BB6902FA03F35A1EBB68DB
:101A38001A407B699A4001217B6901FA03F3591E18
:101A48007B680B40134318462437BD465DF8047B7A
:101A58007047000080B582B000AF78607B68013BBA
:101A6800B3F1807F01D301230FE00A4A7B68013B71
:101A780053600F214FF0FF30FFF790FF054B002216
:101A88009A60044B07221A60002318460837BD469F
:101A980080BD00BF10E000E080B582B000AF786084
:101AA8007868FFF72FFF00BF0837BD4680BD80B5B7
:101AB80086B000AF0346B9607A60FB7300237B6190
:101AC800FFF744FF78617A68B9687869FFF790FF93
:101AD800024697F90F3011461846FFF75FFF00BF1F
:101AE8001837BD4680BD80B582B000AF0346FB7194
:101AF80097F907301846FFF737FF00BF0837BD468C
:101B080080BD80B582B000AF78607868FFF7A2FF2B
:101B1800034618460837BD4680BD000080B483B030
:101B280000AF78607B68042B06D1094A084B1B6814
:101B380043F00403136005E0054A054B1B6823F0D6
:101B48000403136000BF0C37BD465DF8047B704783
:101B580010E000E080B500AF00F002F800BF80BDE3
:101B680080B400AF00BFBD465DF8047B704700003D
:101B780080B489B000AF7860396000237B610023AE
:101B88003B610023BB610023FB616BE10122FB6920
:101B980002FA03F37B613B681A687B6913403B6177
:101BA8003A697B699A4240F05A813B685B68022B2C
:101BB80003D03B685B68122B23D1FB69DA087B688A
:101BC800083253F82230BB61FB6903F007039B001E
:101BD8000F2202FA03F3DB43BA691340BB613B6887
:101BE8001A69FB6903F007039B0002FA03F3BA6959
:101BF8001343BB61FB69DA087B680832B96943F8AB
:101C080022107B681B68BB61FB695B00032202FA38
:101C180003F3DB43BA691340BB613B685B6803F0BD
:101C28000302FB695B0002FA03F3BA691343BB6161
:101C38007B68BA691A603B685B68012B0BD03B680C
:101C48005B68022B07D03B685B68112B03D03B68AD
:101C58005B68122B30D17B689B68BB61FB695B00BA
:101C6800032202FA03F3DB43BA691340BB613B6802
:101C7800DA68FB695B0002FA03F3BA691343BB61D4
:101C88007B68BA699A607B685B68BB610122FB6903
:101C980002FA03F3DB43BA691340BB613B685B6834
:101CA8001B0903F00102FB6902FA03F3BA69134343
:101CB800BB617B68BA695A607B68DB68BB61FB699A
:101CC8005B00032202FA03F3DB43BA691340BB61EA
:101CD8003B689A68FB695B0002FA03F3BA6913432D
:101CE800BB617B68BA69DA603B685B6803F0805364
:101CF800002B00F0B4800023FB605F4A5E4B5B6CF6
:101D080043F4804353645C4B5B6C03F48043FB6097
:101D1800FB685A4AFB699B08023352F82330BB61BF
:101D2800FB6903F003039B000F2202FA03F3DB4372
:101D3800BA691340BB617B68514A93422BD07B68D8
:101D4800504A934225D07B684F4A93421FD07B6804
:101D58004E4A934219D07B684D4A934213D07B6810
:101D68004C4A93420DD07B684B4A934207D07B681C
:101D78004A4A934201D107230EE008230CE00623C8
:101D88000AE0052308E0042306E0032304E0022315
:101D980002E0012300E00023FA6902F00302920046
:101DA8009340BA691343BB613449FB699B0802330A
:101DB800BA6941F823203A4B1B68BB613B69DB4396
:101DC800BA691340BB613B685B6803F48033002B3E
:101DD80003D0BA693B691343BB61314ABB691360DD
:101DE8002F4B5B68BB613B69DB43BA691340BB613E
:101DF8003B685B6803F40033002B03D0BA693B6986
:101E08001343BB61264ABB695360254B9B68BB6182
:101E18003B69DB43BA691340BB613B685B6803F409
:101E28008013002B03D0BA693B691343BB611C4A7A
:101E3800BB6993601A4BDB68BB613B69DB43BA69DA
:101E48001340BB613B685B6803F40013002B03D0AD
:101E5800BA693B691343BB61114ABB69D360FB692B
:101E68000133FB61FB690F2B7FF690AE00BF24376F
:101E7800BD465DF8047B70470038024000380140D9
:101E8800000002400004024000080240000C02402A
:101E9800001002400014024000180240001C0240DA
:101EA800003C014080B485B000AF78600B467B8071
:101EB8007B681A697B881340002B02D00123FB73CF
:101EC80001E00023FB73FB7B18461437BD465DF821
:101ED800047B704780B483B000AF78600B467B808A
:101EE80013467B707B78002B03D07A887B689A61D5
:101EF80003E07B881A047B689A6100BF0C37BD46F3
:101F08005DF8047B704780B483B000AF78600B46FF
:101F18007B807B685A697B885A407B685A6100BF1E
:101F28000C37BD465DF8047B7047000080B586B06D
:101F380000AF78607B68002B01D101232DE27B681C
:101F48001B6803F00103002B75D0A34B9B6803F0BB
:101F58000C03042B0CD0A04B9B6803F00C03082B3C
:101F680012D19D4B5B6803F48003B3F5800F0BD14E
:101F7800994B1B6803F40033002B5BD07B685B68CC
:101F8800002B57D1012308E27B685B68B3F5803FDB
:101F980006D1914A904B1B6843F4803313601DE0CF
:101FA8007B685B68B3F5A02F0CD18B4A8A4B1B6802
:101FB80043F480231360884A874B1B6843F48033BB
:101FC80013600BE0844A844B1B6823F4803313604E
:101FD800814A814B1B6823F4802313607B685B680C
:101FE800002B13D0FEF72CFF386108E0FEF728FF1E
:101FF80002463B69D31A642B01D90323CDE1764B02
:102008001B6803F40033002BF0D014E0FEF718FF30
:10201800386108E0FEF714FF02463B69D31A642BC7
:1020280001D90323B9E16C4B1B6803F40033002B7F
:10203800F0D100E000BF7B681B6803F00203002BAF
:1020480063D0654B9B6803F00C03002B0BD0624BED
:102058009B6803F00C03082B1CD15F4B5B6803F4EF
:102068008003002B16D15C4B1B6803F00203002B86
:1020780005D07B68DB68012B01D001238DE156492F
:10208800554B1B6823F0F8027B681B69DB00134380
:102098000B603AE07B68DB68002B20D04F4B0122B5
:1020A8001A60FEF7CDFE386108E0FEF7C9FE024669
:1020B8003B69D31A022B01D903236EE1464B1B68F7
:1020C80003F00203002BF0D04349434B1B6823F075
:1020D800F8027B681B69DB0013430B6015E03F4B7C
:1020E80000221A60FEF7ACFE386108E0FEF7A8FE91
:1020F80002463B69D31A022B01D903234DE1364B23
:102108001B6803F00203002BF0D17B681B6803F007
:102118000803002B30D07B685B69002B16D0304B4E
:1021280001221A60FEF78CFE386108E0FEF788FE8F
:1021380002463B69D31A022B01D903232DE1264B12
:102148005B6F03F00203002BF0D015E0244B002254
:102158001A60FEF775FE386108E0FEF771FE024668
:102168003B69D31A022B01D9032316E11A4B5B6F83
:1021780003F00203002BF0D17B681B6803F0040313
:10218800002B00F0A0800023FB75134B1B6C03F0A1
:102198008053002B0FD10023FB600F4A0E4B1B6CA2
:1021A80043F0805313640C4B1B6C03F08053FB60AB
:1021B800FB680123FB750B4B1B6803F48073002B32
:1021C80021D1084A074B1B6843F480731360FEF75C
:1021D80037FE386111E000BF003802400000474276
:1021E800800E474200700040FEF72AFE02463B6917
:1021F800D31A022B01D90323CFE06A4B1B6803F4DF
:102208008073002BF0D07B689B68012B06D1664A4F
:10221800654B1B6F43F0010313671CE07B689B68E9
:10222800052B0CD1604A604B1B6F43F00403136706
:102238005D4A5D4B1B6F43F0010313670BE05A4A7D
:10224800594B1B6F23F001031367574A564B1B6FFB
:1022580023F0040313677B689B68002B15D0FEF7F7
:10226800EFFD38610AE0FEF7EBFD02463B69D31A41
:1022780041F28832934201D903238EE04A4B1B6F07
:1022880003F00203002BEED014E0FEF7D9FD38610D
:102298000AE0FEF7D5FD02463B69D31A41F28832BF
:1022A800934201D9032378E03F4B1B6F03F00203ED
:1022B800002BEED1FB7D012B05D13B4A3A4B1B6C21
:1022C80023F0805313647B689B69002B64D0364BE2
:1022D8009B6803F00C03082B5CD07B689B69022B7E
:1022E80041D1324B00221A60FEF7AAFD386108E09E
:1022F800FEF7A6FD02463B69D31A022B01D9032338
:102308004BE0294B1B6803F00073002BF0D12649E2
:102318007B68DA697B681B6A1A437B685B6A9B0186
:102328001A437B689B6A5B08013B1B041A437B6862
:10233800DB6A1B0613434B601C4B01221A60FEF735
:102348007FFD386108E0FEF77BFD02463B69D31A42
:10235800022B01D9032320E0134B1B6803F0007301
:10236800002BF0D018E0114B00221A60FEF768FD30
:10237800386108E0FEF764FD02463B69D31A022B78
:1023880001D9032309E0084B1B6803F00073002BF5
:10239800F0D101E0012300E0002318461837BD46BC
:1023A80080BD00BF00700040003802406000474216
:1023B80080B584B000AF786039607B68002B01D1AC
:1023C8000123CAE0674B1B6803F00F023B689A427F
:1023D8000CD2644B3A68D2B21A70624B1B6803F095
:1023E8000F023B689A4201D00123B6E07B681B6864
:1023F80003F00203002B20D07B681B6803F0040362
:10240800002B05D0584A584B9B6843F4E05393601F
:102418007B681B6803F00803002B05D0524A524B17
:102428009B6843F4604393604F494F4B9B6823F08C
:10243800F0027B689B6813438B607B681B6803F022
:102448000103002B44D07B685B68012B07D1464B06
:102458001B6803F40033002B19D101237DE07B684E
:102468005B68022B03D07B685B68032B07D13E4B6C
:102478001B6803F00073002B09D101236DE03A4B70
:102488001B6803F00203002B01D1012365E03649E4
:10249800354B9B6823F003027B685B6813438B60B2
:1024A800FEF7CEFCF8600AE0FEF7CAFC0246FB68BD
:1024B800D31A41F28832934201D903234DE02A4BC3
:1024C8009B6803F00C027B685B689B009A42EBD127
:1024D800244B1B6803F00F023B689A420CD9214B2E
:1024E8003A68D2B21A701F4B1B6803F00F023B68A0
:1024F8009A4201D0012330E07B681B6803F0040393
:10250800002B08D01849184B9B6823F4E0527B68CD
:10251800DB6813438B607B681B6803F00803002BA0
:1025280009D01149104B9B6823F460427B681B69F2
:10253800DB0013438B6000F01DF801460A4B9B68D3
:102548001B0903F00F03094AD35C21FA03F3084A75
:1025580013600020FEF730FC002318461037BD46F4
:1025680080BD00BF003C02400038024084360008AD
:10257800000000202DE9F04F8FB000AF0023FB6270
:1025880000237B630023BB6200233B63624B9B6891
:1025980003F00C03042B07D0082B08D0002B40F0C5
:1025A800B2805E4B3B63B1E05D4B3B63AEE05A4BA0
:1025B8005B6803F03F03FB62574B5B6803F48003DF
:1025C800002B4ED0544B5B689B094FF0000440F23F
:1025D800FF114FF0000201EA030102EA04020B4670
:1025E800144660017862786A40EAD36078625B01D9
:1025F8003B62D7E908345B1A64EB02044FEA84199A
:1026080049EA93694FEA8318B8EB030869EB0409B0
:102618004FEAC903FB61FB6943EA5873FB614FEA60
:10262800C803BB61D7E9068918EB010849EB020921
:102638004FEA49237B617B6943EAD8537B614FEAC0
:1026480048233B61D7E9048940464946FB6A4FF075
:1026580000041A462346FDF7B3FD03460C467B6388
:1026680043E02D4B5B689B094FF0000440F2FF11DB
:102678004FF0000201EA030102EA04020B46144685
:102688006001F860F86840EAD360F8605B01BB60FD
:10269800D7E902345B1A64EB0204A60146EA9366A2
:1026A8009D01ED1A66EB0406F3007B607B6843EA44
:1026B80055737B60EB003B6097E860006D1846EB54
:1026C80002064FEA862B4BEA955B4FEA852A554668
:1026D8005E4628463146FB6A4FF000041A462346F8
:1026E800FDF76EFD03460C467B630B4B5B681B0CCA
:1026F80003F0030301335B00BB627A6BBB6AB2FB76
:10270800F3F33B6302E0054B3B6300BF3B6B1846AA
:102718003C37BD46BDE8F08F003802400024F40085
:1027280000127A0080B400AF034B1B681846BD4600
:102738005DF8047B704700BF0000002080B582B0C0
:1027480000AF78607B68002B01D101231DE07B6816
:1027580093F83930DBB2002B06D17B68002283F86E
:1027680038207868FEF7E4F97B68022283F839207C
:102778007B681A687B6804331946104600F050FBE2
:102788007B68012283F83920002318460837BD46A4
:1027980080BD80B483B000AF78607B68022283F884
:1027A80039207B681B687A681268126842F0010257
:1027B8001A607B68012283F83920002318460C37F9
:1027C800BD465DF8047B704780B483B000AF786085
:1027D8007B681B687A681268D26842F00102DA6086
:1027E8007B681B687A681268126842F001021A60F6
:1027F800002318460C37BD465DF8047B704780B54A
:1028080082B000AF78607B68002B01D101231DE006
:102818007B6893F83930DBB2002B06D17B68002245
:1028280083F83820786800F015F87B68022283F86E
:1028380039207B681A687B6804331946104600F013
:10284800EFFA7B68012283F83920002318460837FD
:10285800BD4680BD80B483B000AF786000BF0C3740
:10286800BD465DF8047B704780B582B000AF7860E4
:102878007B681B681B6903F00203022B22D17B686B
:102888001B68DB6803F00203022B1BD17B681B6803
:102898006FF002021A617B6801221A767B681B6856
:1028A8009B6903F00303002B03D0786800F099FAC2
:1028B80005E0786800F08BFA786800F09CFA7B688D
:1028C80000221A767B681B681B6903F00403042B3B
:1028D80022D17B681B68DB6803F00403042B1BD13F
:1028E8007B681B686FF004021A617B6802221A7603
:1028F8007B681B689B6903F44073002B03D07868DE
:1029080000F06FFA05E0786800F061FA786800F086
:1029180072FA7B6800221A767B681B681B6903F0D1
:102928000803082B22D17B681B68DB6803F00803C7
:10293800082B1BD17B681B686FF008021A617B6843
:1029480004221A767B681B68DB6903F00303002BFB
:1029580003D0786800F045FA05E0786800F037FAA7
:10296800786800F048FA7B6800221A767B681B6852
:102978001B6903F01003102B22D17B681B68DB68EE
:1029880003F01003102B1BD17B681B686FF010023B
:102998001A617B6808221A767B681B68DB6903F476
:1029A8004073002B03D0786800F01BFA05E07868C4
:1029B80000F00DFA786800F01EFA7B6800221A769B
:1029C8007B681B681B6903F00103012B0ED17B6830
:1029D8001B68DB6803F00103012B07D17B681B68C8
:1029E8006FF001021A61786800F0E7F97B681B68EC
:1029F8001B6903F08003802B0ED17B681B68DB68A2
:102A080003F08003802B07D17B681B686FF080027E
:102A18001A61786800F0C3FD7B681B681B6903F0C6
:102A28004003402B0ED17B681B68DB6803F0400332
:102A3800402B07D17B681B686FF040021A617868E9
:102A480000F0E3F97B681B681B6903F02003202B67
:102A58000ED17B681B68DB6803F02003202B07D1AD
:102A68007B681B686FF020021A61786800F08DFDA2
:102A780000BF0837BD4680BD80B584B000AFF860A0
:102A8800B9607A60FB6893F83830012B01D10223D2
:102A9800B4E0FB68012283F83820FB68022283F83F
:102AA80039207B680C2B00F29F8001A252F823F09A
:102AB800ED2A0008F12B0008F12B0008F12B000883
:102AC8002D2B0008F12B0008F12B0008F12B000832
:102AD8006F2B0008F12B0008F12B0008F12B0008E0
:102AE800AF2B0008FB681B68B968184600F0BAFAF3
:102AF800FB681B68FA681268926942F008029A61DA
:102B0800FB681B68FA681268926922F004029A61ED
:102B1800FB681B68FA6812689169BA6812690A4307
:102B28009A6162E0FB681B68B968184600F022FAEF
:102B3800FB681B68FA681268926942F400629A613D
:102B4800FB681B68FA681268926922F480629A61CD
:102B5800FB681B68FA6812689169BA681269120200
:102B68000A439A6141E0FB681B68B968184600F09F
:102B7800EDFAFB681B68FA681268D26942F008022D
:102B8800DA61FB681B68FA681268D26922F00402ED
:102B9800DA61FB681B68FA681268D169BA68126959
:102BA8000A43DA6121E0FB681B68B968184600F03F
:102BB80045FBFB681B68FA681268D26942F4006238
:102BC800DA61FB681B68FA681268D26922F48062CD
:102BD800DA61FB681B68FA681268D169BA68126919
:102BE80012020A43DA6100E000BFFB68012283F8A1
:102BF8003920FB68002283F8382000231846103754
:102C0800BD4680BD80B584B000AF786039600023D0
:102C1800FB607B6893F83830012B01D10223C8E0B0
:102C28007B68012283F838207B68022283F83920E8
:102C38007B681B689B68FB60FB6823F07703FB607D
:102C4800FB6823F47F43FB607B681B68FA689A6023
:102C58003B681B68402B77D0402B0ED8102B00F018
:102C68008A80102B02D8002B7ED099E0202B00F010
:102C78008980302B00F08D8092E0702B16D0702B5D
:102C880004D8502B40D0602B4ED089E0B3F5805F3C
:102C980003D0B3F5005F24D082E07B681B687A68B4
:102CA8001268926822F007029A6079E07B681868D7
:102CB8003B6899683B685A683B68DB6800F0A5FB8D
:102CC8007B681B689B68FB60FB6823F07703FB60ED
:102CD800FB6843F07703FB607B681B68FA689A60BF
:102CE8005EE07B6818683B6899683B685A683B688F
:102CF800DB6800F08AFB7B681B687A681268926858
:102D080042F480429A604BE07B6818683B685968D7
:102D18003B68DB681A4600F0F1FA7B681B685021B3
:102D2800184600F052FB3BE07B6818683B6859681E
:102D38003B68DB681A4600F014FB7B681B6860215F
:102D4800184600F042FB2BE07B6818683B6859681E
:102D58003B68DB681A4600F0D1FA7B681B684021A3
:102D6800184600F032FB1BE07B681B680021184600
:102D780000F02BFB14E07B681B681021184600F05C
:102D880024FB0DE07B681B682021184600F01DFB22
:102D980006E07B681B683021184600F016FB00BF70
:102DA8007B68012283F839207B68002283F8382069
:102DB800002318461037BD4680BD80B483B000AFED
:102DC800786000BF0C37BD465DF8047B704780B45F
:102DD80083B000AF786000BF0C37BD465DF8047B58
:102DE800704780B483B000AF786000BF0C37BD4631
:102DF8005DF8047B704780B483B000AF786000BF93
:102E08000C37BD465DF8047B704780B483B000AFD3
:102E1800786000BF0C37BD465DF8047B7047000042
:102E280080B485B000AF786039600023FB607B68B0
:102E38001B68FB607B68444A934213D07B68B3F1FC
:102E4800804F0FD07B68414A93420BD07B68404A41
:102E5800934207D07B683F4A934203D07B683E4A3F
:102E6800934201D1012300E00023002B08D0FB6826
:102E780023F07003FB603B685B68FA681343FB60F0
:102E88007B68314A93422BD07B68B3F1804F27D0BF
:102E98007B682E4A934223D07B682D4A93421FD0E9
:102EA8007B682C4A93421BD07B682B4A934217D0ED
:102EB8007B682A4A934213D07B68294A93420FD0F1
:102EC8007B68284A93420BD07B68274A934207D0F5
:102ED8007B68264A934203D07B68254A934201D1F6
:102EE800012300E00023002B08D0FB6823F4407383
:102EF800FB603B68DB68FA681343FB607B68FA6831
:102F08001A603B689A687B68DA623B681A687B6873
:102F18009A627B680C4A934203D07B680E4A9342BC
:102F280001D1012300E00023002B03D03B681A697C
:102F38007B681A637B6801225A6100BF1437BD465B
:102F48005DF8047B704700BF0000014000040040AA
:102F580000080040000C004000040140004001400F
:102F6800004401400048014000180040001C004097
:102F78000020004080B487B000AF7860396000233B
:102F8800FB6000237B6100233B617B681B6A23F0A5
:102F980010027B681A627B681B6A7B617B685B68CE
:102FA8003B617B689B69FB60FB6823F4E043FB6043
:102FB800FB6823F44073FB603B681B681B02FA68DC
:102FC8001343FB607B6923F020037B613B689B68AC
:102FD8001B017A6913437B617B68204A934203D0C3
:102FE8007B681F4A934201D1012300E00023002B94
:102FF80021D07B6923F080037B613B68DB681B0180
:103008007A6913437B617B6923F040037B613B69E9
:1030180023F480633B613B6923F400633B613B68B5
:103028005B699B003A6913433B613B689B699B0062
:103038003A6913433B617B683A695A607B68FA686E
:103048009A613B685A687B689A637B687A691A62F6
:1030580000BF1C37BD465DF8047B70470000014087
:103068000004014080B487B000AF78603960002365
:10307800FB6000237B6100233B617B681B6A23F0B4
:1030880001027B681A627B681B6A7B617B685B68EC
:103098003B617B689B69FB60FB6823F07003FB6006
:1030A800FB6823F00303FB603B681B68FA68134363
:1030B800FB607B6923F002037B613B689B687A694C
:1030C80013437B617B681F4A934203D07B681E4A87
:1030D800934201D1012300E00023002B1ED07B691D
:1030E80023F008037B613B68DB687A6913437B61E3
:1030F8007B6923F004037B613B6923F480733B61A4
:103108003B6923F400733B613B685B693A6913438D
:103118003B613B689B693A6913433B617B683A6949
:103128005A607B68FA689A613B685A687B685A6398
:103138007B687A691A6200BF1C37BD465DF8047B5C
:10314800704700BF000001400004014080B487B010
:1031580000AF786039600023FB6000237B610023A7
:103168003B617B681B6A23F480727B681A627B6808
:103178001B6A7B617B685B683B617B68DB69FB6022
:10318800FB6823F07003FB60FB6823F00303FB601C
:103198003B681B68FA681343FB607B6923F4007380
:1031A8007B613B689B681B027A6913437B617B6880
:1031B800204A934203D07B681F4A934201D10123DE
:1031C80000E00023002B21D07B6923F400637B619E
:1031D8003B68DB681B027A6913437B617B6923F4D4
:1031E80080637B613B6923F480533B613B6923F433
:1031F80000533B613B685B691B013A6913433B61C0
:103208003B689B691B013A6913433B617B683A69D8
:103218005A607B68FA68DA613B685A687B68DA63E7
:103228007B687A691A6200BF1C37BD465DF8047B6B
:10323800704700BF000001400004014080B487B01F
:1032480000AF7860396000233B610023FB600023F6
:103258007B617B681B6A23F480527B681A627B68F7
:103268001B6AFB607B685B687B617B68DB693B6131
:103278003B6923F4E0433B613B6923F440733B61C2
:103288003B681B681B023A6913433B61FB6823F4E4
:103298000053FB603B689B681B03FA681343FB60A1
:1032A8007B68144A934203D07B68134A934201D146
:1032B800012300E00023002B09D07B6923F480431D
:1032C8007B613B685B699B017A6913437B617B681F
:1032D8007A695A607B683A69DA613B685A687B6840
:1032E8001A647B68FA681A6200BF1C37BD465DF82D
:1032F800047B7047000001400004014080B487B09F
:1033080000AFF860B9607A6000237B6100233B61FD
:10331800FB681B6A3B61FB681B6A23F00102FB68C0
:103328001A62FB689B697B617B6923F0F0037B6110
:103338007B681B017A6913437B613B6923F00A03AD
:103348003B613A69BB6813433B61FB687A699A61E0
:10335800FB683A691A6200BF1C37BD465DF8047BFA
:10336800704780B487B000AFF860B9607A60002316
:103378007B6100233B61FB681B6A23F01002FB683A
:103388001A62FB689B697B61FB681B6A3B617B690E
:1033980023F470437B617B681B037A6913437B6169
:1033A8003B6923F0A0033B61BB681B013A691343E7
:1033B8003B61FB687A699A61FB683A691A6200BFE7
:1033C8001C37BD465DF8047B704780B485B000AFFC
:1033D80078600B467B800023FB607B689B68FB6002
:1033E800FB6823F07003FB607B8843F007039BB204
:1033F8001A46FB681343FB607B68FA689A6000BF53
:103408001437BD465DF8047B704780B487B000AFC1
:10341800F860B9607A603B6000237B61FB689B6859
:103428007B617B6923F47F437B613B681A027B687D
:103438001A43BB6813437A6913437B61FB687A6953
:103448009A6000BF1C37BD465DF8047B704780B4A6
:1034580083B000AF786039607B6893F83830012B0F
:1034680001D1022332E07B68012283F838207B688F
:10347800022283F839207B681B687A6812685268D0
:1034880022F070025A607B681B687A68126851687B
:103498003A6812680A435A607B681B687A6812683F
:1034A800926822F080029A607B681B687A681268CA
:1034B80091683A6852680A439A607B68012283F8E7
:1034C80039207B68002283F83820002318460C37FF
:1034D800BD465DF8047B704780B485B000AF786066
:1034E80039600023FB607B6893F83830012B01D1E9
:1034F800022344E07B68012283F83820FB6823F02C
:10350800FF023B68DB681343FB60FB6823F44072EF
:103518003B689B681343FB60FB6823F480623B684D
:103528005B681343FB60FB6823F400623B681B681D
:103538001343FB60FB6823F480523B681B69134309
:10354800FB60FB6823F400523B685B691343FB6034
:10355800FB6823F480423B689B691343FB60FB686C
:1035680023F400423B689B691343FB607B681B683C
:10357800FA685A647B68002283F8382000231846CA
:103588001437BD465DF8047B704780B483B000AF44
:10359800786000BF0C37BD465DF8047B704780B487
:1035A80083B000AF786000BF0C37BD465DF8047B80
:1035B80070470000DFF834D0002103E00C4B5B5863
:1035C800435004310B480C4B42189A42F6D30B4A2D
:1035D80002E0002342F8043B094B9A42F9D3FDF775
:1035E80093FB00F011F8FCF773FF7047000002200E
:1035F800A4360008000000200C0000200C00002069
:1036080028010020FEE7000070B50D4E0D4CA41BEC
:10361800A4100025A54209D10B4E0C4C00F018F857
:10362800A41BA4100025A54205D170BD56F825306D
:1036380098470135EEE756F8253098470135F2E707
:103648009C3600089C3600089C360008A036000806
:10365800F8B500BFF8BC08BC9E467047F8B500BF77
:08366800F8BC08BC9E46704747
:103670002E2E5C436F72655C5372635C6D61696E84
:103680002E6300000000000000000000010203049F
:043690000607080918
:0836940064CBFF7F0100000080
:04369C00AD01000874
:0436A0008901000894
:0C36A4000024F4001000000001000000F1
:04000005080035BDFD
:00000001FF
