:020000040800F2
:1000000000A00020B13700085D0600086B0600085C
:1000100071060008770600087D0600080000000051
:10002000000000000000000000000000830600083F
:1000300091060008000000009F060008AD060008B9
:1000400001380008013800080138000801380008AC
:10005000013800080138000801380008013800089C
:10006000013800080138000801380008013800088C
:10007000013800080138000801380008013800087C
:10008000013800080138000801380008013800086C
:10009000013800080138000801380008013800085C
:1000A000013800080138000801380008013800084C
:1000B000013800080138000801380008BD060008B2
:1000C000D10600080138000801380008013800088E
:1000D000013800080138000801380008013800081C
:1000E000013800080138000801380008013800080C
:1000F00001380008013800080138000801380008FC
:1001000000000000000000000000000001380008AE
:1001100001380008013800080138000801380008DB
:1001200001380008013800080138000801380008CB
:10013000013800080138000800000000000000003D
:1001400001380008013800080138000800000000EC
:10015000000000000000000000000000000000009F
:10016000000000000000000001380008013800080D
:10017000013800080000000000000000000000003E
:08018000000000000138000836
:1001880010B5054C237833B9044B13B10448AFF3C9
:1001980000800123237010BD0C0000200000000027
:1001A8004C38000808B5034B1BB103490348AFF3AB
:1001B800008008BD00000000100000204C38000836
:1001C80080B582B002AF00F0D3FA00F035F800F045
:1001D80045F900F089F800F0CFF800F005F911486A
:1001E80003F0C5F9104803F0C2F90E4803F0DAF934
:1001F8000D4803F0D7F94FF4FA6000F01FFB00F048
:1002080065F90A2000F01AFB0A2300930223074A23
:10021800D021074800F0CCFE044B1B68DAB2054B2E
:100228001A70EEE778000020BC000020B80000201B
:10023800280000207400002080B59EB000AF022383
:100248003B6501233B6610237B660023FB6607F1B1
:100258005003184601F0B0FE0346002B03D0A52139
:100268001F4800F03AF90F23FB6300233B64002387
:100278007B640023BB640023FB6407F13C0300217B
:10028800184602F083FD0346002B03D0B32114481F
:1002980000F023F920233B600023FB613B4618460E
:1002A80002F08AFF0346002B03D0BA210C4800F065
:1002B80014F902F075FF02460A4BA3FB02239B09BF
:1002C800184600F0DCFB042000F0E6FB00220021C9
:1002D8004FF0FF3000F0A9FB00BF7837BD4680BD66
:1002E80064380008D34D621080B500AF1E4B1F4A1A
:1002F8001A601D4B1E4A5A601B4B00229A601A4B0B
:100308000122DA60184B00221A61174B00225A6149
:10031800154B00229A61144B0022DA61124B00221D
:100328001A62114800F0B6FD0346002B03D0D8210D
:10033800104800F0D2F800210B4801F0A3FD034655
:10034800002B03D0DF210B4800F0C7F80021064836
:1003580001F0E3FD0346002B03D0E621054800F039
:10036800BCF800BF80BD00BF28000020005400403A
:100378000E0900206438000880B584B000AF174B20
:10038800174A1A60154B4FF4FA525A60134B002261
:100398009A60124B4FF4FA72DA60104B00229A619D
:1003A8000E4803F0B9F80346002B03D0F8210D4896
:1003B80000F093F800237B600023FB603B1D194687
:1003C800064803F09DF90346002B03D0FF2105489A
:1003D80000F083F800BF1037BD4680BD78000020CC
:1003E800001000406438000880B584B000AF184B96
:1003F800184A1A60164B4FF4FA525A60144B0022EE
:100408009A60134B4FF47A72DA60114B00229A61AA
:100418000F4803F081F80346002B04D040F2111175
:100428000D4800F05AF800237B600023FB603B1D59
:100438001946074803F064F90346002B04D04FF42B
:100448008C71054800F049F800BF1037BD4680BDE3
:10045800BC000020001400406438000880B588B053
:1004680000AF184A174B5B6943F400135361154BEF
:100478005B6903F40013BB60BB68124A114B5B69EC
:1004880043F4003353610F4B5B6903F400337B6023
:100498007B6800224FF47F410B4800F0E3FC4FF4E7
:1004A8007F43FB6001233B6100237B610023BB6129
:1004B80007F10C031946044800F056FB00BF20372B
:1004C800BD4680BD001002400010004880B400AF57
:1004D80000BFBD465DF8047B704780B483B000AFB1
:1004E80078603960FEE7000080B582B000AF1E4A30
:1004F8001D4B9B6943F0010393611B4B9B6903F000
:1005080001037B607B68032000F084FA002200214D
:100518006FF00B0000F089FA002200216FF00A004A
:1005280000F083FA002200216FF0090000F07DFA44
:10053800002200216FF0040000F077FA0022002169
:100548006FF0030000F071FA002200216FF0010043
:1005580000F06BFA002200214FF0FF3000F065FA3E
:1005680000BF0837BD4680BD0010024080B588B086
:1005780000AF78607B681B681A4A93422DD14FF40C
:100588004043FB6012233B6100237B610323BB6173
:100598000423FB6107F10C0319464FF0904000F06B
:1005A800E3FA114A104BDB6943F40013D3610E4B95
:1005B800DB6903F40013BB60BB68002200211F2025
:1005C80000F033FA1F2000F04CFA0022002120200E
:1005D80000F02BFA202000F044FA00BF2037BD4677
:1005E80080BD00BF005400400010024080B485B0B8
:1005F80000AF78607B681B68134A93420CD1134A9A
:10060800124BDB6943F01003D361104BDB6903F035
:100618001003FB60FB6810E07B681B680C4A934280
:100628000BD10A4A094BDB6943F02003D361074B1E
:10063800DB6903F02003BB60BB6800BF1437BD460D
:100648005DF8047B704700BF0010004000100240B6
:100658000014004080B400AF00BFBD465DF8047BC5
:10066800704780B400AFFEE780B400AFFEE780B407
:1006780000AFFEE780B400AFFEE780B400AF00BF74
:10068800BD465DF8047B704780B400AF00BFBD462F
:100698005DF8047B704780B400AF00BFBD465DF8CD
:1006A800047B704780B500AF00F0A8F800F010FA9E
:1006B80000BF80BD80B500AF024800F07BFD00BFE1
:1006C80080BD00BF2800002080B500AF024800F0C0
:1006D8008BFD00BF80BD00BF2800002080B400AFA4
:1006E8001F4A1F4BD3F8883043F47003C2F8883090
:1006F8001C4A1C4B1B6843F0010313601949194B32
:100708005A68194B13404B60164A164B1B6823F066
:10071800847323F480331360124A124B1B6823F44A
:10072800802313600F4A0F4B5B6823F4FE0353606A
:100738000C4A0C4BDB6A23F00F03D3620949094BBF
:100748001A6B0A4B13400B63064B00229A60044B4A
:100758004FF000629A6000BFBD465DF8047B7047A9
:1007680000ED00E0001002400CC07FF8CCFC00FF58
:1007780080B500AF084A084B1B6843F010031360AC
:10078800032000F047F9002000F008F8FFF7ACFE5E
:100798000023184680BD00BF0020024080B582B00B
:1007A80000AF7860124B1A68124B1B7819464FF449
:1007B8007A73B3FBF1F3B2FBF3F3184600F05FF979
:1007C8000346002B01D001230EE07B680F2B0AD8CB
:1007D800002279684FF0FF3000F027F9064A7B685D
:1007E8001360002300E0012318460837BD4680BD8A
:1007F80000000020080000200400002080B400AFA2
:10080800064B1B781A46064B1B681344044A1360B0
:1008180000BFBD465DF8047B704700BF080000209C
:10082800FC00002080B400AF034B1B681846BD468F
:100838005DF8047B704700BFFC00002080B584B0E1
:1008480000AF7860FFF7EEFFB8607B68FB60FB687D
:10085800B3F1FF3F05D0094B1B781A46FB681344D8
:10086800FB6000BFFFF7DEFF0246BB68D21AFB68D9
:100878009A42F7D300BF1037BD4680BD080000205C
:1008880080B485B000AF78607B6803F00703FB6035
:100898000C4BDB68BB60BA684FF6FF031340BB60C4
:1008A800FB681A02BB68134343F0BF6343F4003389
:1008B800BB60044ABB68D36000BF1437BD465DF80F
:1008C800047B704700ED00E080B400AF044BDB68A8
:1008D8001B0A03F007031846BD465DF8047B704702
:1008E80000ED00E080B483B000AF0346FB71094916
:1008F80097F907305B09FA7902F01F02012000FA24
:1009080002F241F8232000BF0C37BD465DF8047B96
:10091800704700BF00E100E080B483B000AF034639
:100928003960FB7197F90730002B0BDA0D49FB7919
:1009380003F00F03043B3A68D2B21201D2B20B445F
:100948001A7609E0084997F907303A68D2B21201D5
:10095800D2B20B4483F8002300BF0C37BD465DF8C4
:10096800047B704700ED00E000E100E080B489B04E
:1009780000AFF860B9607A60FB6803F00703FB61B9
:10098800FB69C3F10703042B28BF0423BB61FB6980
:100998000433062B02D9FB69033B00E000237B618B
:1009A8000122BB6902FA03F35A1EBB681A407B692D
:1009B8009A4001217B6901FA03F3591E7B680B40B9
:1009C800134318462437BD465DF8047B7047000082
:1009D80080B582B000AF78607B68013BB3F1807F5F
:1009E80001D301230FE00A4A7B68013B53600F21C2
:1009F8004FF0FF30FFF790FF054B00229A60044B41
:100A080007221A60002318460837BD4680BD00BF7C
:100A180010E000E080B582B000AF78607868FFF73A
:100A28002FFF00BF0837BD4680BD80B586B000AF38
:100A38000346B9607A60FB7300237B61FFF744FFCC
:100A480078617A68B9687869FFF790FF024697F984
:100A58000F3011461846FFF75FFF00BF1837BD4635
:100A680080BD80B582B000AF0346FB7197F90730AF
:100A78001846FFF737FF00BF0837BD4680BD80B571
:100A880082B000AF78607868FFF7A2FF0346184687
:100A98000837BD4680BD000080B483B000AF7860E1
:100AA8007B68042B06D1094A084B1B6843F00403F2
:100AB800136005E0054A054B1B6823F00403136027
:100AC80000BF0C37BD465DF8047B704710E000E0BE
:100AD80080B500AF00F002F800BF80BD80B400AF61
:100AE80000BFBD465DF8047B704780B584B000AF99
:100AF80078600023FB737B6893F82130022B05D0C4
:100B08007B6804229A630123FB7327E07B681B68D8
:100B18007A681268126822F00E021A607B681B68F5
:100B28007A681268126822F001021A607B68DB6B2F
:100B38007A68126C012101FA02F25A607B6801227C
:100B480083F821207B68002283F820207B685B6B78
:100B5800002B03D07B685B6B78689847FB7B184653
:100B68001037BD4680BD000080B487B000AF786004
:100B7800396000237B610023FB6000233B6154E163
:100B88003B681A6801217B6901FA03F31340FB6093
:100B9800FB68002B00F046813B685B68022B03D0A2
:100BA8003B685B68122B23D17B69DA087B680832C3
:100BB80053F822303B617B6903F007039B000F2247
:100BC80002FA03F3DB433A6913403B613B681A6955
:100BD8007B6903F007039B0002FA03F33A691343A6
:100BE8003B617B69DA087B680832396943F822106F
:100BF8007B681B683B617B695B00032202FA03F395
:100C0800DB433A6913403B613B685B6803F00302CE
:100C18007B695B0002FA03F33A6913433B617B6823
:100C28003A691A603B685B68012B0BD03B685B68CC
:100C3800022B07D03B685B68112B03D03B685B68CD
:100C4800122B30D17B689B683B617B695B00032278
:100C580002FA03F3DB433A6913403B613B68DA6805
:100C68007B695B0002FA03F33A6913433B617B68D3
:100C78003A699A607B685B683B6101227B6902FA8A
:100C880003F3DB433A6913403B613B685B681B092C
:100C980003F001027B6902FA03F33A6913433B61EB
:100CA8007B683A695A607B68DB683B617B695B00FB
:100CB800032202FA03F3DB433A6913403B613B68C2
:100CC8009A687B695B0002FA03F33A6913433B6154
:100CD8007B683A69DA603B685B6803F08053002BF5
:100CE80000F0A080584A584B9B6943F00103936178
:100CF800554B9B6903F00103BB60BB68534A7B6992
:100D08009B08023352F823303B617B6903F00303ED
:100D18009B000F2202FA03F3DB433A6913403B615D
:100D28007B68B3F1904F19D07B68494A934213D03E
:100D38007B68484A93420DD07B68474A934207D064
:100D48007B68464A934201D1042308E0052306E064
:100D5800032304E0022302E0012300E000237A6970
:100D680002F00302920093403A6913433B6137490A
:100D78007B699B0802333A6941F82320384B1B688A
:100D88003B61FB68DB433A6913403B613B685B6846
:100D980003F48033002B03D03A69FB6813433B61AB
:100DA8002F4A3B6913602E4B5B683B61FB68DB4352
:100DB8003A6913403B613B685B6803F40033002BDE
:100DC80003D03A69FB6813433B61254A3B6953608A
:100DD800234B9B683B61FB68DB433A6913403B61EB
:100DE8003B685B6803F48013002B03D03A69FB6807
:100DF80013433B611A4A3B699360194BDB683B61BB
:100E0800FB68DB433A6913403B613B685B6803F46A
:100E18000013002B03D03A69FB6813433B61104A67
:100E28003B69D3607B6901337B613B681A687B69E6
:100E380022FA03F3002B7FF4A3AE00BF1C37BD4694
:100E48005DF8047B704700BF0010024000000140BD
:100E58000004004800080048000C00480010004842
:100E68000004014080B483B000AF78600B467B80FB
:100E780013467B707B78002B03D07A887B689A6155
:100E880002E07A887B689A6200BF0C37BD465DF83D
:100E9800047B704780B582B000AF78607B68002B18
:100EA80001D1012380E07B6893F84130DBB2002B4D
:100EB80006D17B68002283F840207868FFF756FB4C
:100EC8007B68242283F841207B681B687A68126853
:100ED800126822F001021A607B681B687A685268FF
:100EE80022F070621A617B681B687A6812689268DF
:100EF80022F400429A607B68DB68012B07D17B688B
:100F08001B687A68926842F400429A6006E07B683F
:100F18001B687A68926842F404429A607B68DB68CE
:100F2800022B04D17B681B684FF400625A607B680F
:100F38001A687B681B685B6843F0007343F40043DE
:100F480053607B681B687A681268D26822F4004292
:100F5800DA607B681B687A6811697A68526911439C
:100F68007A68926912020A43DA607B681B687A68B9
:100F7800D1697A68126A0A431A607B681B687A68C2
:100F88001268126842F001021A607B6800225A64F3
:100F98007B68202283F841207B6800221A637B68E3
:100FA800002283F84220002318460837BD4680BD3A
:100FB80080B588B002AFF8607A601A460B467B812C
:100FC80013463B8100237B61FB6893F84130DBB219
:100FD800202B40F0E580FB6893F84030012B01D1CD
:100FE8000223DEE0FB68012283F84020FFF71AFCA9
:100FF80078617B690093192301224FF40041F86856
:1010080000F06EFD0346002B01D00323C9E0FB6806
:10101800222283F84120FB68102283F84220FB68D3
:1010280000225A64FB687A685A62FB683A895A85D2
:10103800FB6800225A63FB685B8D9BB2FF2B0ED9BD
:10104800FB68FF221A85FB681B8DDAB27989574B3A
:1010580000934FF08073F86800F082FE71E0FB683F
:101068005B8D9AB2FB681A85FB681B8DDAB27989A9
:101078004E4B00934FF00073F86800F071FE60E08B
:101088007A69396AF86800F0A1FD0346002B07D099
:10109800FB685B6C042B01D1012382E0032380E011
:1010A800FB685B6A591CFA685162FA681268526AEE
:1010B800D2B21A70FB681B8D013B9AB2FB681A8585
:1010C800FB685B8D9BB2013B9AB2FB685A85FB6853
:1010D8001B8D002B35D1FB685B8D9BB2002B30D06C
:1010E8007B6900933B6A00228021F86800F0F8FCD5
:1010F8000346002B01D0032353E0FB685B8D9BB2B2
:10110800FF2B0ED9FB68FF221A85FB681B8DDAB20C
:101118007989002300934FF08073F86800F020FE6F
:101128000FE0FB685B8D9AB2FB681A85FB681B8D24
:10113800DAB27989002300934FF00073F86800F061
:101148000FFEFB685B8D9BB2002B99D17A69396AD7
:10115800F86800F0FFFC0346002B07D0FB685B6CC7
:10116800042B01D101231CE003231AE0FB681B6850
:101178002022DA61FB681A68FB681B6859680C4B07
:101188000B405360FB68202283F84120FB68002253
:1011980083F84220FB68002283F84020002300E007
:1011A800022318461837BD4680BD00BF00240080C2
:1011B80000E800FE80B584B000AF78607B681B68EB
:1011C8009B69FB607B681B681B68BB607B685B6B0B
:1011D800002B05D07B685B6BBA68F968786898471C
:1011E80000BF1037BD4680BD80B584B000AF7860C1
:1011F8007B681B689B69FB607B681B681B68BB601E
:10120800FB6803F48073002B0FD0BB6803F08003E6
:10121800002B0AD07B685B6C43F001027B685A6440
:101228007B681B684FF48072DA61FB6803F48063A3
:10123800002B0FD0BB6803F08003002B0AD07B681B
:101248005B6C43F008027B685A647B681B684FF448
:101258008062DA61FB6803F40073002B0FD0BB686F
:1012680003F08003002B0AD07B685B6C43F002021A
:101278007B685A647B681B684FF40072DA617B688C
:101288005B6C03F00B03002B05D07B685B6C194685
:10129800786800F017FB00BF1037BD4680BD80B4EA
:1012A80083B000AF786000BF0C37BD465DF8047BA3
:1012B800704780B483B000AF786000BF0C37BD467C
:1012C8005DF8047B704780B483B000AF78600B464C
:1012D800FB7013463B8000BF0C37BD465DF8047BAE
:1012E800704780B483B000AF786000BF0C37BD464C
:1012F8005DF8047B704780B483B000AF786000BFAE
:101308000C37BD465DF8047B704780B483B000AFEE
:10131800786000BF0C37BD465DF8047B704780B528
:1013280084B000AFF860B9607A60FB6893F8403029
:10133800012B01D10223D8E0FB68012283F8402069
:10134800BB6803F01003002B45D07B6803F0100343
:10135800002B40D0FB685B8D9BB2002B2FD1FB6824
:10136800DB6AB3F1007F04D0FB68DB6AB3F1007F6E
:101378000AD1FB6893F84130DBB2282B04D1B96855
:10138800F86800F04DFA25E0FB68DB6A13F5803F4A
:1013980010D0FB6893F84130DBB2292B0AD1FB68E7
:1013A8001B681022DA61F86800F04AFBF86800F060
:1013B8002AF90FE0FB681B681022DA6182E0FB68FB
:1013C8001B681022DA61FB685B6C43F00402FB685F
:1013D8005A6477E076E0BB6803F00403002B2ED054
:1013E8007B6803F00403002B29D0FB685B8D9BB25C
:1013F800002B16D0FB685B6A591CFA685162FA68C0
:101408001268526AD2B21A70FB681B8D013B9AB2FD
:10141800FB681A85FB685B8D9BB2013B9AB2FB683F
:101428005A85FB685B8D9BB2002B4AD1FB68DB6A4F
:1014380013F5803F45D0F86800F0E5F841E0BB6857
:1014480003F00803002B09D07B6803F00803002B86
:1014580004D0B968F86800F04CF833E0BB6803F0D2
:101468000203002B2ED07B6803F00203002B29D047
:10147800FB685B8D9BB2002B16D0FB681A68FB6873
:101488005B6A581CF96848621B789362FB685B8D3D
:101498009BB2013B9AB2FB685A85FB681B8D013BE6
:1014A8009AB2FB681A850DE0FB68DB6AB3F1807FAE
:1014B80003D0FB68DB6A002B04D1F86800F0A3F8BE
:1014C80000E000BFBB6803F02003002B08D07B6856
:1014D80003F02003002B03D0B968F86800F0D0F8B7
:1014E800FB68002283F84020002318461037BD46C9
:1014F80080BD80B584B000AF786039600023FB738D
:101508000023BB8100237B8100233B817B6893F808
:101518004130DBB203F02803282B68D17B681B68B5
:101528009B691B0CDBB203F00103FB737B681B6830
:101538009B691B0C9BB203F0FE03BB817B681B6895
:101548009B689BB2C3F309037B817B681B68DB68DC
:101558009BB203F0FE033B817B68DB68022B37D12B
:101568007B89DB099AB2BB8953409BB203F006031F
:10157800002B1CD17B89BB817B689B6C5A1C7B68C8
:101588009A647B689B6C022B39D17B6800229A6431
:101598007B681B680822DA617B68002283F8402098
:1015A800BA89FB7B19467868FFF78DFE27E03B89EF
:1015B800BB810421786800F0FFFB7B68002283F878
:1015C8004020BA89FB7B19467868FFF77CFE16E055
:1015D8000421786800F0F0FB7B68002283F8402043
:1015E800BA89FB7B19467868FFF76DFE07E07B68D0
:1015F8001B680822DA617B68002283F8402000BF5C
:101608001037BD4680BD80B582B000AF78607B687A
:10161800002283F842207B6893F84130DBB2292B03
:1016280012D17B68282283F841207B6821221A6323
:101638000121786800F0C0FB7B68002283F8402015
:101648007868FFF72CFE17E07B6893F84130DBB22F
:101658002A2B11D17B68282283F841207B6822221B
:101668001A630221786800F0A7FB7B68002283F8E0
:1016780040207868FFF71DFE00BF0837BD4680BDD3
:1016880080B582B000AF786039607B681B68202223
:10169800DA617B681B680822DA610721786800F044
:1016A8008BFB7B681B687A681268526842F40042B8
:1016B8005A607B681A687B681B685968564B0B40F0
:1016C8005360786800F0BCF97B681B681B6803F4FA
:1016D8008043B3F5804F07D07B681B681B6803F411
:1016E8000043B3F5004F12D17B6893F84130DBB269
:1016F800212B05D17B689B6B1B685B689BB204E060
:101708007B68DB6B1B685B689BB27A6853857B6878
:101718005B8D9BB2002B05D07B685B6C43F00402A9
:101728007B685A643B6803F00403002B20D07B6875
:101738005B6A591C7A6851627A681268526AD2B236
:101748001A707B681B8D002B12D07B681B8D013BA8
:101758009AB27B681A857B685B8D9BB2013B9AB213
:101768007B685A857B685B6C43F004027B685A642B
:101778007B6800221A637B68002283F842207B681A
:1017880000225A637B685B6C002B10D07B685B6C13
:101798001946786800F096F87B6893F84130DBB218
:1017A800282B35D13968786800F03AF830E07B6842
:1017B800DB6A13F5803F0ED07B68184ADA627B68D3
:1017C800202283F841207B68002283F84020786833
:1017D800FFF787FD1CE07B6893F84130DBB2222BD2
:1017E8000BD17B68202283F841207B68002283F894
:1017F80040207868FFF75DFD0AE07B68202283F8C7
:1018080041207B68002283F840207868FFF747FD75
:1018180000BF0837BD4680BD00E800FE0000FFFF9E
:1018280080B582B000AF786039607B68244ADA629C
:101838007B6800221A637B68202283F841207B683A
:10184800002283F842207B6800225A633B6803F039
:101858000403002B20D07B685B6A591C7A685162AC
:101868007A681268526AD2B21A707B681B8D002B94
:1018780012D07B681B8D013B9AB27B681A857B6806
:101888005B8D9BB2013B9AB27B685A857B685B6C27
:1018980043F004027B685A640721786800F08CFAE8
:1018A8007B681B681022DA617B68002283F840207D
:1018B8007868FFF716FD00BF0837BD4680BD00BF3A
:1018C8000000FFFF80B582B000AF786039607B68A8
:1018D800002283F842207B68564ADA627B6800223D
:1018E8005A857B685A6C3B681A437B685A647B68E4
:1018F80093F84130DBB2282B0BD07B6893F841304A
:10190800DBB2292B05D07B6893F84130DBB22A2B58
:101918000ED10321786800F04FFA7B68282283F8FB
:1019280041207B6800221A637B68434A5A6313E0AC
:101938000721786800F040FA7B6893F84130DBB201
:10194800602B03D07B68202283F841207B6800222B
:101958001A637B6800225A637B681B681B6803F460
:101968008043B3F5804F1FD17B681B687A68126883
:10197800126822F480421A607B689B6B2F4A5A6374
:101988007B68002283F840207B689B6B1846FFF732
:10199800ACF80346002B48D07B689B6B5B6B7A687E
:1019A800926B1046984740E07B681B681B6803F4FD
:1019B8000043B3F5004F1FD17B681B687A68126833
:1019C800126822F400421A607B68DB6B1B4A5A6378
:1019D8007B68002283F840207B68DB6B1846FFF7A2
:1019E80084F80346002B20D07B68DB6B5B6B7A683E
:1019F800D26B1046984718E07B6893F84130DBB209
:101A0800602B0BD17B68202283F841207B68002261
:101A180083F840207868FFF778FC06E07B680022AE
:101A280083F840207868FFF766FC00BF0837BD469A
:101A380080BD00BF0000FFFF27130008911A0008AF
:101A480080B483B000AF78607B681B689B6903F043
:101A58000203022B03D17B681B6800229A627B6811
:101A68001B689B6903F00103012B07D07B681B6887
:101A78007A681268926942F001029A6100BF0C37D5
:101A8800BD465DF8047B704780B584B000AF7860D0
:101A98007B685B6AFB60FB681B68FA6812685268BF
:101AA80042F400425A60FB689B6B00225A63FB6851
:101AB800DB6B00225A63FB6893F84130DBB2602B82
:101AC80007D1FB68202283F84120F868FFF71DFC46
:101AD80002E0F868FFF70FFC00BF1037BD4680BD75
:101AE80080B584B000AFF860B9603B601346FB7105
:101AF8001CE03B68B3F1FF3F18D03B68002B07D0D0
:101B0800FEF790FE0246BB69D21A3B689A420DD98D
:101B1800FB68202283F84120FB68002283F84220DA
:101B2800FB68002283F8402003230FE0FB681B6852
:101B38009A69BB681A40BB689A420CBF012300230C
:101B4800DBB21A46FB799A42D3D0002318461037E5
:101B5800BD4680BD80B584B000AFF860B9607A60DA
:101B680028E07A68B968F86800F09CF80346002B0A
:101B780001D0012326E0BB68002B07D0FEF752FEF8
:101B880002467B68D21ABB689A4213D9FB685B6C21
:101B980043F02002FB685A64FB68202283F8412046
:101BA800FB68002283F84220FB68002283F840206B
:101BB800032307E0FB681B689B6903F02003202BC5
:101BC800CFD1002318461037BD4680BD80B584B0FC
:101BD80000AFF860B9607A6055E07A68B968F8686B
:101BE80000F060F80346002B01D0012353E0FB68A6
:101BF8001B689B6903F02003202B29D1FB681B6815
:101C08009B6903F00403042B05D1FB681B8D002B93
:101C180001D000233FE0FB681B682022DA61FB68E3
:101C28001A68FB681B6859681D4B0B405360FB68BA
:101C380000225A64FB68202283F84120FB680022B6
:101C480083F84220FB68002283F84020012322E029
:101C5800BB68002B07D0FEF7E5FD02467B68D21A69
:101C6800BB689A420FD9FB685B6C43F02002FB68A3
:101C78005A64FB68202283F84120FB68002283F81D
:101C88004020032307E0FB681B689B6903F00403FB
:101C9800042BA2D1002318461037BD4680BD00BFD3
:101CA80000E800FE80B584B000AFF860B9607A60E3
:101CB800FB681B689B6903F01003102B48D11CE0DC
:101CC800BB68B3F1FF3F18D0BB68002B07D0FEF705
:101CD800A9FD02467B68D21ABB689A420DD9FB68F7
:101CE800202283F84120FB68002283F84220FB6809
:101CF800002283F8402003232BE0FB681B689B69C4
:101D080003F02003202BDBD1FB681B681022DA616B
:101D1800FB681B682022DA61F868FFF791FEFB6810
:101D28001A68FB681B6859680C4B0B405360FB68CA
:101D380004225A64FB68202283F84120FB680022B1
:101D480083F84220FB68002283F84020012300E04A
:101D5800002318461037BD4680BD00BF00E800FECE
:101D680080B485B000AFF8607B600B467B8113467A
:101D78007B72FB681A68FB681B685968BB695B0D56
:101D880003F480600B4B0343DB4319407B89C3F3A7
:101D980009007B7A1B0403F47F0318437B6818430C
:101DA800BB6903430B43536000BF1437BD465DF85E
:101DB800047B7047FF63FF0380B485B000AF786091
:101DC8000B467B800023FB607B8803F00103002B1C
:101DD8000FD0FB6843F04203FB607B6893F8413007
:101DE800DBB203F02803282B03D0FB6843F0B003D1
:101DF800FB607B8803F00203002B0FD0FB6843F0E5
:101E08004403FB607B6893F84130DBB203F028039E
:101E1800282B03D0FB6843F0B003FB607B8803F0FA
:101E28000403002B03D0FB6843F0B803FB607B88F6
:101E380003F01103112B03D1FB6843F09003FB60FF
:101E48007B8803F01203122B03D1FB6843F02003B5
:101E5800FB607B8803F01203122B03D1FB6843F06D
:101E68004003FB607B681B687A6812681168FA682F
:101E7800D2430A401A60002318461437BD465DF85D
:101E8800047B704780B483B000AF786039607B68AA
:101E980093F84130DBB2202B38D17B6893F840307F
:101EA800012B01D1022332E07B68012283F8402014
:101EB8007B68242283F841207B681B687A68126853
:101EC800126822F001021A607B681B687A6812683F
:101ED800126822F480521A607B681B687A6812685C
:101EE80011683A680A431A607B681B687A68126846
:101EF800126842F001021A607B68202283F84120B0
:101F08007B68002283F84020002300E00223184663
:101F18000C37BD465DF8047B704780B485B000AFD0
:101F2800786039600023FB607B6893F84130DBB24E
:101F3800202B39D17B6893F84030012B01D1022343
:101F480033E07B68012283F840207B68242283F8F1
:101F580041207B681B687A681268126822F00102C7
:101F68001A607B681B681B68FB60FB6823F470635E
:101F7800FB603B681B02FA681343FB607B681B68C5
:101F8800FA681A607B681B687A681268126842F0FF
:101F980001021A607B68202283F841207B680022B6
:101FA80083F84020002300E0022318461437BD467A
:101FB8005DF8047B7047000080B5ADF5007D00AF8B
:101FC8003B1D18600023C7F8F8313B1D1B681B68D0
:101FD80003F00103002B00F06E81B54B5B6803F042
:101FE8000C03042B0CD0B24B5B6803F00C03082BDA
:101FF8005AD1AF4B5B6803F48033B3F5803F53D1BC
:102008004FF40033C7F8F431D7F8F43193FAA3F357
:10201800C7F8F031D7F8F031B3FA83F3DBB25B09D4
:10202800DBB243F00103DBB2012B02D1A04B1B68EA
:1020380015E04FF40033C7F8EC31D7F8EC3193FAD8
:10204800A3F3C7F8E8314FF40033C7F8E431D7F801
:10205800E43193FAA3F3C7F8E031954B5B6A4FF488
:102068000032C7F8DC21D7F8DC2192FAA2F2C7F8CF
:10207800D821D7F8D821B2FA82F252B242F020021F
:1020880052B2D2B202F01F02012101FA02F2134049
:10209800002B00F00F813B1D1B685B68002B40F094
:1020A8000981012300F06BBE3B1D1B685B68B3F51B
:1020B800803F06D17E4A7E4B1B6843F48033136011
:1020C80030E03B1D1B685B68002B0CD1784A784BCD
:1020D8001B6823F480331360754A754B1B6823F41F
:1020E800802313601EE03B1D1B685B68B3F5A02FBF
:1020F8000CD16F4A6E4B1B6843F4802313606C4A03
:102108006B4B1B6843F4803313600BE0684A684BE1
:102118001B6823F480331360654A654B1B6823F4FE
:10212800802313606249624BDB6A23F00F023B1D78
:102138001B689B681343CB623B1D1B685B68002BC5
:102148005AD0FEF76FFBC7F8F8010AE0FEF76AFB02
:102158000246D7F8F831D31A642B02D9032300F0CA
:102168000EBE4FF40033C7F8D431D7F8D43193FA00
:10217800A3F3C7F8D031D7F8D031B3FA83F3DBB281
:102188005B09DBB243F00103DBB2012B02D1484B00
:102198001B6815E04FF40033C7F8CC31D7F8CC31C1
:1021A80093FAA3F3C7F8C8314FF40033C7F8C43122
:1021B800D7F8C43193FAA3F3C7F8C0313C4B5B6A34
:1021C8004FF40032C7F8BC21D7F8BC2192FAA2F22A
:1021D800C7F8B821D7F8B821B2FA82F252B242F061
:1021E800200252B2D2B202F01F02012101FA02F219
:1021F8001340002BAAD05EE0FEF714FBC7F8F801E5
:102208000AE0FEF70FFB0246D7F8F831D31A642B21
:1022180002D9032300F0B3BD4FF40033C7F8B4313B
:10222800D7F8B43193FAA3F3C7F8B031D7F8B0317F
:10223800B3FA83F3DBB25B09DBB243F00103DBB231
:10224800012B02D11A4B1B6815E04FF40033C7F875
:10225800AC31D7F8AC3193FAA3F3C7F8A8314FF4EF
:102268000033C7F8A431D7F8A43193FAA3F3C7F819
:10227800A0310F4B5B6A4FF40032C7F89C21D7F8A6
:102288009C2192FAA2F2C7F89821D7F89821B2FABD
:1022980082F252B242F0200252B2D2B202F01F02CF
:1022A800012101FA02F21340002BAAD103E000BF7A
:1022B8000010024000BF3B1D1B681B6803F00203AF
:1022C800002B00F07081D04B5B6803F00C03002BEF
:1022D8000BD0CD4B5B6803F00C03082B6DD1CA4BB8
:1022E8005B6803F48033002B67D10223C7F894316D
:1022F800D7F8943193FAA3F3C7F89031D7F890310F
:10230800B3FA83F3DBB25B09DBB243F00103DBB260
:10231800012B02D1BC4B1B6813E00223C7F88C3198
:10232800D7F88C3193FAA3F3C7F888310223C7F89A
:102338008431D7F8843193FAA3F3C7F88031B24BCC
:102348005B6A0222C7F87C21D7F87C2192FAA2F2B4
:10235800C7F87821D7F87821B2FA82F252B242F05F
:10236800200252B2D2B202F01F02012101FA02F297
:102378001340002B07D03B1D1B681B69012B02D0A3
:10238800012300F0FCBCA0489F4B1B6823F0F80217
:102398003B1D1B685969F823C7F87431D7F87431A5
:1023A80093FAA3F3C7F87031D7F87031B3FA83F30F
:1023B80001FA03F313430360F5E03B1D1B681B6937
:1023C800002B00F085800123C7F86C31D7F86C31F9
:1023D80093FAA3F3C7F86831D7F86831B3FA83F3EF
:1023E80003F1845303F584139B001A4601231360F9
:1023F800FEF718FAC7F8F8010AE0FEF713FA0246E2
:10240800D7F8F831D31A022B02D9032300F0B7BC4E
:102418000223C7F86431D7F8643193FAA3F3C7F8F5
:102428006031D7F86031B3FA83F3DBB25B09DBB212
:1024380043F00103DBB2012B02D1734B1B6813E09D
:102448000223C7F85C31D7F85C3193FAA3F3C7F8D5
:1024580058310223C7F85431D7F8543193FAA3F30B
:10246800C7F85031684B5B6A0222C7F84C21D7F88D
:102478004C2192FAA2F2C7F84821D7F84821B2FABB
:1024880082F252B242F0200252B2D2B202F01F02DD
:10249800012101FA02F21340002BAED05A485A4BE0
:1024A8001B6823F0F8023B1D1B685969F823C7F81D
:1024B8004431D7F8443193FAA3F3C7F84031D7F839
:1024C8004031B3FA83F301FA03F3134303606AE07C
:1024D8000123C7F83C31D7F83C3193FAA3F3C7F886
:1024E8003831D7F83831B3FA83F303F1845303F55D
:1024F80084139B001A4600231360FEF793F9C7F86C
:10250800F8010AE0FEF78EF90246D7F8F831D31A37
:10251800022B02D9032300F032BC0223C7F834315E
:10252800D7F8343193FAA3F3C7F83031D7F83031FC
:10253800B3FA83F3DBB25B09DBB243F00103DBB22E
:10254800012B02D1304B1B6813E00223C7F82C3152
:10255800D7F82C3193FAA3F3C7F828310223C7F828
:102568002431D7F8243193FAA3F3C7F82031264B46
:102578005B6A0222C7F81C21D7F81C2192FAA2F242
:10258800C7F81821D7F81821B2FA82F252B242F0ED
:10259800200252B2D2B202F01F02012101FA02F265
:1025A8001340002BAED13B1D1B681B6803F00803CA
:1025B800002B00F0D8803B1D1B689B69002B67D05F
:1025C8000123C7F81431D7F8143193FAA3F3C7F8E5
:1025D8001031D7F81031B3FA83F31A460B4B134472
:1025E8009B001A4601231360FEF71CF9C7F8F8018F
:1025F8000EE0FEF717F90246D7F8F831D31A022B86
:1026080006D90323BBE300BF0010024020819010CD
:102618000223C7F80C31D7F80C3193FAA3F3C7F8A3
:1026280008310223C7F80431D7F8043193FAA3F22A
:1026380007F580731A6007F1FC0302221A6007F19C
:10264800FC031B6893FAA3F207F1F8031A60A54B81
:102658005A6A07F1F4030221196007F1F4031B68B1
:1026680093FAA3F107F1F003196007F1F0031B686F
:10267800B3FA83F35BB243F060035BB2DBB203F0FF
:102688001F03012101FA03F31340002BB1D06AE0C4
:1026980007F1EC0301221A6007F1EC031B6893FAB7
:1026A800A3F207F1E8031A6007F1E8031B68B3FA1D
:1026B80083F31A468C4B13449B001A46002313607D
:1026C800FEF7B0F8C7F8F80109E0FEF7ABF80246E4
:1026D800D7F8F831D31A022B01D903234FE307F1B6
:1026E800E40302221A6007F1E4031B6893FAA3F2D9
:1026F80007F1E0031A6007F1DC0302221A6007F110
:10270800DC031B6893FAA3F207F1D8031A6007F1F8
:10271800D40302221A6007F1D4031B6893FAA3F2C8
:1027280007F1D0031A606F4B5A6A07F1CC030221F4
:10273800196007F1CC031B6893FAA3F107F1C803EA
:10274800196007F1C8031B68B3FA83F35BB243F05F
:1027580060035BB2DBB203F01F03012101FA03F34C
:102768001340002BB1D13B1D1B681B6803F0040309
:10277800002B00F05981002387F8FF31594BDB69A2
:1027880003F08053002B12D1564A564BDB6943F0B5
:102798008053D361534BDB6903F0805207F10C037C
:1027A8001A6007F10C031B68012387F8FF314F4BB0
:1027B8001B6803F48073002B1AD14C4A4B4B1B68DF
:1027C80043F480731360FEF72DF8C7F8F80109E0A9
:1027D800FEF728F80246D7F8F831D31A642B01D946
:1027E8000323CCE2414B1B6803F48073002BEFD02A
:1027F8003B1D1B68DB68012B06D13A4A394B1B6A23
:1028080043F0010313622FE03B1D1B68DB68002BBC
:102818000CD1344A334B1B6A23F001031362314A4B
:10282800304B1B6A23F0040313621DE03B1D1B6839
:10283800DB68052B0CD12B4A2A4B1B6A43F0040397
:102848001362284A274B1B6A43F0010313620BE00B
:10285800244A244B1B6A23F001031362214A214BAB
:102868001B6A23F0040313623B1D1B68DB68002B03
:102878006BD0FDF7D7FFC7F8F8010BE0FDF7D2FFE3
:102888000246D7F8F831D31A41F28832934201D977
:10289800032374E207F1C40302221A6007F1C40398
:1028A8001B6893FAA3F207F1C0031A6007F1BC038F
:1028B80002221A6007F1BC031B6893FAA3F207F11E
:1028C800B8031A6007F1B8031B68B3FA83F3DBB2E5
:1028D8005B09DBB243F00203DBB2022B08D1014BE8
:1028E8001B6A13E000100240208190100070004025
:1028F80007F1B40302221A6007F1B4031B6893FAC4
:10290800A3F207F1B0031A60BB4B5B6A07F1AC0294
:102918000221116007F1AC02126892FAA2F107F1E4
:10292800A802116007F1A8021268B2FA82F252B244
:1029380042F0400252B2D2B202F01F02012101FA63
:1029480002F21340002B99D064E0FDF76BFFC7F843
:10295800F8010BE0FDF766FF0246D7F8F831D31A05
:1029680041F28832934201D9032308E207F1A40314
:1029780002221A6007F1A4031B6893FAA3F207F175
:10298800A0031A6007F19C0302221A6007F19C0356
:102998001B6893FAA3F207F198031A6007F19803EA
:1029A8001B68B3FA83F3DBB25B09DBB243F00203C3
:1029B800DBB2022B02D1904B1B6A0DE007F19403A6
:1029C80002221A6007F194031B6893FAA3F207F135
:1029D80090031A60884B5B6A07F18C020221116030
:1029E80007F18C02126892FAA2F107F188021160CD
:1029F80007F188021268B2FA82F252B242F040023B
:102A080052B2D2B202F01F02012101FA02F21340BF
:102A1800002B9FD197F8FF31012B05D1764A764BD1
:102A2800DB6923F08053D3613B1D1B68DB69002BF6
:102A380000F0A481704B5B6803F00C03082B00F0D6
:102A48009B813B1D1B68DB69022B40F0138107F15A
:102A580084034FF080721A6007F184031B6893FAAD
:102A6800A3F207F180031A6007F180031B68B3FA29
:102A780083F303F1845303F584139B001A46002360
:102A88001360FDF7CFFEC7F8F80109E0FDF7CAFEAD
:102A98000246D7F8F831D31A022B01D903236EE185
:102AA80007F17C034FF000721A6007F17C031B6882
:102AB80093FAA3F207F178031A6007F178031B6809
:102AC800B3FA83F3DBB25B09DBB243F00103DBB299
:102AD800012B02D1484B1B681BE007F174034FF030
:102AE80000721A6007F174031B6893FAA3F207F1E6
:102AF80070031A6007F16C034FF000721A6007F157
:102B08006C031B6893FAA3F207F168031A603A4B47
:102B18005B6A07F164024FF00071116007F164020B
:102B2800126892FAA2F107F16002116007F16002DF
:102B38001268B2FA82F252B242F0200252B2D2B213
:102B480002F01F02012101FA02F21340002B9DD16D
:102B58002948294B5B6823F474123B1D1B68596A8A
:102B68003B1D1B681B6A0B431343436007F15C035F
:102B78004FF080721A6007F15C031B6893FAA3F2A6
:102B880007F158031A6007F158031B68B3FA83F377
:102B980003F1845303F584139B001A460123136041
:102BA800FDF740FEC7F8F80109E0FDF73BFE0246D5
:102BB800D7F8F831D31A022B01D90323DFE007F144
:102BC80054034FF000721A6007F154031B6893FA1C
:102BD800A3F207F150031A6007F150031B68B3FA18
:102BE80083F3DBB25B09DBB243F00103DBB2012BF9
:102BF80004D1014B1B681DE00010024007F14C0393
:102C08004FF000721A6007F14C031B6893FAA3F2A5
:102C180007F148031A6007F144034FF000721A6085
:102C280007F144031B6893FAA3F207F140031A6003
:102C3800554B5B6A07F13C024FF00071116007F1D8
:102C48003C02126892FAA2F107F13802116007F10A
:102C580038021268B2FA82F252B242F0200252B23C
:102C6800D2B202F01F02012101FA02F21340002B36
:102C78009BD083E007F134034FF080721A6007F1AC
:102C880034031B6893FAA3F207F130031A6007F1C3
:102C980030031B68B3FA83F303F1845303F58413F9
:102CA8009B001A4600231360FDF7BCFDC7F8F80126
:102CB80009E0FDF7B7FD0246D7F8F831D31A022B21
:102CC80001D903235BE007F12C034FF000721A606F
:102CD80007F12C031B6893FAA3F207F128031A6083
:102CE80007F128031B68B3FA83F3DBB25B09DBB295
:102CF80043F00103DBB2012B02D1234B1B681BE01D
:102D080007F124034FF000721A6007F124031B68CF
:102D180093FAA3F207F120031A6007F11C034FF09E
:102D280000721A6007F11C031B6893FAA3F207F1FB
:102D380018031A60144B5B6A07F114024FF0007114
:102D4800116007F11402126892FAA2F107F1100259
:102D5800116007F110021268B2FA82F252B242F020
:102D6800200252B2D2B202F01F02012101FA02F28D
:102D78001340002B9DD101E0012300E000231846F9
:102D880007F50077BD4680BD0010024080B59EB0B3
:102D980000AF7860396000237B67A74B1B6803F09E
:102DA80007023B689A4210D2A349A34B1B6823F041
:102DB80007023B6813430B609F4B1B6803F0070235
:102DC8003B689A4201D0012375E17B681B6803F0D8
:102DD8000203002B08D09949984B5B6823F0F00256
:102DE8007B689B6813434B607B681B6803F0010397
:102DF800002B00F009817B685B68012B3DD14FF403
:102E080000333B673B6F93FAA3F3FB66FB6EB3FAA1
:102E180083F3DBB25B09DBB243F00103DBB2012BC6
:102E280002D1864B1B680FE04FF40033BB66BB6EC4
:102E380093FAA3F37B664FF400333B663B6E93FA39
:102E4800A3F3FB657D4B5B6A4FF40032BA65BA6D3C
:102E580092FAA2F27A657A6DB2FA82F252B242F02E
:102E6800200252B2D2B202F01F02012101FA02F28C
:102E78001340002B7DD101231DE17B685B68022B89
:102E88003DD14FF000733B653B6D93FAA3F3FB64B0
:102E9800FB6CB3FA83F3DBB25B09DBB243F00103EB
:102EA800DBB2012B02D1654B1B680FE04FF00073BA
:102EB800BB64BB6C93FAA3F37B644FF000733B6471
:102EC8003B6C93FAA3F3FB635C4B5B6A4FF00072B5
:102ED800BA63BA6B92FAA2F27A637A6BB2FA82F2A6
:102EE80052B242F0200252B2D2B202F01F020121C5
:102EF80001FA02F21340002B3BD10123DBE002234D
:102F08003B633B6B93FAA3F3FB62FB6AB3FA83F36D
:102F1800DBB25B09DBB243F00103DBB2012B02D168
:102F2800464B1B680DE00223BB62BB6A93FAA3F30E
:102F38007B6202233B623B6A93FAA3F3FB613F4B3C
:102F48005B6A0222BA61BA6992FAA2F27A617A6974
:102F5800B2FA82F252B242F0200252B2D2B202F077
:102F68001F02012101FA02F21340002B01D10123B3
:102F7800A1E03249314B5B6823F003027B685B6850
:102F880013434B60FDF74EFC78677B685B68012B49
:102F980012D10AE0FDF746FC02467B6FD31A41F2D4
:102FA8008832934201D9032385E0244B5B6803F000
:102FB8000C03042BEED127E07B685B68022B1DD144
:102FC8000AE0FDF72FFC02467B6FD31A41F28832E4
:102FD800934201D903236EE0184B5B6803F00C039E
:102FE800082BEED110E0FDF71DFC02467B6FD31ACB
:102FF80041F28832934201D903235CE00F4B5B68AE
:1030080003F00C03002BEED10B4B1B6803F00702F7
:103018003B689A4214D90849074B1B6823F00702FA
:103028003B6813430B60044B1B6803F007023B68C3
:103038009A4205D001233EE00020024000100240E1
:103048007B681B6803F00403002B08D01C491C4B49
:103058005B6823F4E0627B68DB6813434B607B6842
:103068001B6803F00803002B09D01549144B5B6853
:1030780023F460527B681B69DB0013434B6000F04C
:1030880025F801460E4B5B6803F0F002F0233B6124
:103098003B6993FAA3F3FB60FB68B3FA83F322FA64
:1030A80003F3084AD35C21FA03F3074A13600020AC
:1030B800FDF774FB002318467837BD4680BD00BF76
:1030C80000100240783800080000002080B48BB05F
:1030D80000AF0023FB610023BB6100237B62002358
:1030E8007B6100233B62294B5B68FB61FB6903F052
:1030F8000C03042B02D0082B03D03CE0244B3B628A
:103108003CE0FB6903F470124FF47013BB60BB68BA
:1031180093FAA3F37B607B68B3FA83F322FA03F391
:103128001C4AD35C7B61194BDB6A03F00F020F2347
:103138003B613B6993FAA3F3FB60FB68B3FA83F343
:1031480022FA03F3144AD35CBB61FB6903F48033AE
:10315800002B08D00E4ABB69B2FBF3F37A6902FB75
:1031680003F37B6204E07B690C4A02FB03F37B6296
:103178007B6A3B6202E0064B3B6200BF3B6A184633
:103188002C37BD465DF8047B704700BF0010024035
:1031980000127A00883800089838000800093D00B5
:1031A80080B400AF034B1B681846BD465DF8047B2E
:1031B800704700BF0000002080B592B000AF786073
:1031C80000233B640023FB637B681B6803F48033A4
:1031D800002B00F0D680002387F847304D4BDB6981
:1031E80003F08053002B0ED14A4A4A4BDB6943F067
:1031F8008053D361474BDB6903F08053BB60BB68E6
:10320800012387F84730444B1B6803F48073002B75
:1032180018D1414A404B1B6843F480731360FDF793
:1032280001FB386408E0FDF7FDFA02463B6CD31A4F
:10323800642B01D9032368E1374B1B6803F48073BF
:10324800002BF0D0334B1B6A03F44073FB63FB6B1A
:10325800002B00F083807B685B6803F44072FB6B93
:103268009A427BD02B4B1B6A23F44073FB634FF4C9
:1032780080333B633B6B93FAA3F3FB62FB6AB3FABD
:1032880083F31A46254B13449B001A460123136007
:103298004FF48033BB63BB6B93FAA3F37B637B6B05
:1032A800B3FA83F31A461D4B13449B001A460023B6
:1032B8001360184AFB6B1362FB6B03F00103002BCE
:1032C8004CD0FDF7AFFA38640AE0FDF7ABFA0246D6
:1032D8003B6CD31A41F28832934201D9032314E19B
:1032E8000223BB62BB6A93FAA3F37B6202233B62AD
:1032F8003B6A93FAA3F3FB61FB69B3FA83F3DBB28E
:103308005B09DBB243F00203DBB2022B08D1014BAD
:103318001B6A0DE000100240007000400081901010
:103328000223BB61BB6993FAA3F37B61794B5B6AA8
:1033380002223A613A6992FAA2F2FA60FA68B2FA9B
:1033480082F252B242F0400252B2D2B202F01F02EE
:10335800012101FA02F21340002BB6D06D496D4BE2
:103368001B6A23F440727B685B6813430B6297F80F
:103378004730012B05D1674A664BDB6923F0805340
:10338800D3617B681B6803F00103002B08D06149F7
:10339800604B1B6B23F003027B689B6813430B6332
:1033A8007B681B6803F00203002B08D05949594B6E
:1033B8001B6B23F440327B68DB6813430B637B6829
:1033C8001B6803F00403002B08D05249514B1B6BB8
:1033D80023F440227B681B6913430B637B681B68DB
:1033E80003F02003002B08D04A494A4B1B6B23F0FB
:1033F80010027B68DB6913430B637B681B6803F46B
:103408000033002B08D04349424B5B6823F4800209
:103418007B689B6B13434B607B681B6803F040031E
:10342800002B08D03B493B4B1B6B23F020027B68E9
:103438001B6A13430B637B681B6803F00803002BAC
:1034480008D03449334B1B6B23F440127B685B690B
:1034580013430B637B681B6803F01003002B08D031
:103468002C492C4B1B6B23F440027B689B6913434C
:103478000B637B681B6803F40073002B08D0254995
:10348800244B5B6823F400027B68DB6A13434B60C0
:103498007B681B6803F08003002B08D01D491D4B77
:1034A800DB6A23F4F8727B685B6A1343CB627B6840
:1034B8001B6803F48073002B08D01649154BDB6A90
:1034C80023F478527B689B6A1343CB627B681B6842
:1034D80003F48053002B08D00E490E4B1B6B23F4CA
:1034E80080727B681B6B13430B637B681B6803F458
:1034F8000053002B08D00749064B1B6B23F40072BE
:103508007B685B6B13430B63002318464837BD4643
:1035180080BD00BF0010024080B582B000AF786067
:103528007B68002B01D101231DE07B6893F83D30B7
:10353800DBB2002B06D17B68002283F83C20786838
:10354800FDF754F87B68022283F83D207B681A68EF
:103558007B6804331946104600F040F87B68012266
:1035680083F83D20002318460837BD4680BD80B447
:1035780083B000AF78607B68022283F83D207B68C7
:103588001B687A681268126842F001021A607B6848
:10359800012283F83D20002318460C37BD465DF80C
:1035A800047B704780B483B000AF78607B681B6889
:1035B8007A681268D26842F00102DA607B681B6898
:1035C8007A681268126842F001021A6000231846ED
:1035D8000C37BD465DF8047B7047000080B485B0A9
:1035E80000AF786039600023FB607B681B68FB6074
:1035F8007B683C4A93420FD07B68B3F1804F0BD075
:103608007B68394A934207D07B68384A934203D093
:103618007B68374A934208D1FB6823F07003FB604C
:103628003B685B68FA681343FB607B682D4A9342EA
:103638001BD07B68B3F1804F17D07B682A4A93422E
:1036480013D07B68294A93420FD07B68284A93425B
:103658000BD07B68274A934207D07B68264A93425F
:1036680003D07B68254A934208D1FB6823F4407352
:10367800FB603B68DB68FA681343FB60FB6823F078
:1036880080023B685B691343FB607B68FA681A60D9
:103698003B689A687B68DA623B681A687B689A625A
:1036A8007B68104A93420FD07B68114A93420BD033
:1036B8007B68104A934207D07B680F4A934203D035
:1036C8007B680E4A934203D13B681A697B681A6388
:1036D8007B6801225A6100BF1437BD465DF8047B40
:1036E800704700BF002C0140000400400008004063
:1036F80000340140004001400044014000480140BE
:1037080080B485B000AF786039607B6893F83C304E
:10371800012B01D102233DE07B68012283F83C2084
:103728007B681B685B68FB607B681B689B68BB6089
:103738007B681B681A4A934204D07B681B68194A45
:10374800934208D1FB6823F47003FB603B685B6815
:10375800FA681343FB60FB6823F07003FB603B6867
:103768001B68FA681343FB60BB6823F08003BB60E7
:103778003B689B68BA681343BB607B681B68FA6840
:103788005A607B681B68BA689A607B68002283F875
:103798003C20002318461437BD465DF8047B70476B
:1037A800002C014000340140DFF834D0002103E050
:1037B8000C4B5B58435004310B480C4B42189A424F
:1037C800F6D30B4A02E0002342F8043B094B9A4225
:1037D800F9D3FCF783FF00F011F8FCF7F1FCFEE7E2
:1037E80000A00020B0380008000000200C000020D5
:1037F8000C00002000010020FEE7000070B50D4E0F
:103808000D4CA41BA4100025A54209D10B4E0C4C4D
:1038180000F018F8A41BA4100025A54205D170BD1E
:1038280056F8253098470135EEE756F82530984781
:103838000135F2E7A8380008A8380008A8380008B9
:10384800AC380008F8B500BFF8BC08BC9E46704705
:0C385800F8B500BFF8BC08BC9E467047E5
:103864002E2E5C436F72655C5372635C6D61696E8E
:103874002E630000000000000000000001020304A9
:103884000607080902030405060708090A0B0C0DBC
:103894000E0F10100102030405060708090A0B0C99
:0438A4000D0E0F10E6
:0438A800AD01000866
:0438AC008901000886
:0C38B00000127A0010000000010000006F
:04000005080037B107
:00000001FF
